:020000040800F2
:1000000000C00020750A0008BD0A0008BD0A0008EB
:10001000BD0A0008BD0A0008BD0A00080000000073
:10002000000000000000000000000000BD0A000801
:10003000BD0A000800000000BD0A0008BD0A000853
:10004000BD0A0008BD0A0008BD0A0008BD0A000874
:10005000BD0A0008BD0A0008BD0A0008BD0A000864
:10006000BD0A0008BD0A0008BD0A0008BD0A000854
:10007000BD0A0008BD0A0008BD0A0008BD0A000844
:10008000BD0A0008BD0A0008BD0A0008BD0A000834
:10009000BD0A0008BD0A0008BD0A0008BD0A000824
:1000A000BD0A0008BD0A0008BD0A0008BD0A000814
:1000B000BD0A0008BD0A0008BD0A0008BD0A000804
:1000C000BD0A0008BD0A0008BD0A0008BD0A0008F4
:1000D000BD0A0008BD0A0008BD0A0008BD0A0008E4
:1000E000BD0A0008BD0A0008BD0A000800000000A3
:1000F0000000000000000000000000000000000000
:0C01000000000000000000005FF808F1A3
:10010C0010B5054C237833B9044B13B10448AFF345
:10011C0000800123237010BD9C0100200000000012
:10012C002C1500080C4B43B10C4810B50C49AFF31F
:10013C0000800C48036823B910BD0A48036833B922
:10014C007047094B002BF7D0BDE810401847064B01
:10015C00002BF5D0184700BF000000002C1500083C
:10016C00A00100209801002000000000162031A101
:10017C00ABBE30484168002901D0354A1160016896
:10018C00002901D1314901608168C268002900D081
:10019C008D46002A01D002F5807A00218B460F464D
:1001AC002548264A121A00F09FF800F0DDF81520B9
:1001BC002549ABBE24490968002001B40B780131F4
:1001CC00002B15D0202BF9D0222B01D0272B01D1BD
:1001DC001A0001E02022013902B401300B78013100
:1001EC00002B05D09A42F9D100224B1E1A70E5E77C
:1001FC006946020092006A446B469A4206D9043A58
:10020C0014681D6815601C600433F6E76C460725FE
:10021C00AC43A54604000D000948002802D009484B
:10022C00AFF3008000F03CF82000290000F03CFB0C
:10023C0000F022F8040000209C0100207402002031
:10024C0000000000000000001401002078020020D3
:10025C0080010020D015000800000020980100202B
:10026C009C01002074020020034613F8012B002A85
:10027C00FBD1181A0138704708B5074B044613B167
:10028C000021AFF30080054B1868836A03B19847CF
:10029C00204600F0F5FA00BF0000000048150008E9
:1002AC0070B500250C4E0D4CA41BA410A54209D111
:1002BC0001F038F900250A4E0A4CA41BA410A542E3
:1002CC0005D170BD56F8253098470135EEE756F844
:1002DC00253098470135F2E7C8150008C815000805
:1002EC00C8150008CC15000803460244934200D1FF
:1002FC00704703F8011BF9E70A4B10B50446186860
:10030C0018B183690BB900F025FC132C07D80648EB
:10031C0050F83430013302D000EBC40010BD002083
:10032C0010BD00BF1C010020C8010020F8B5431C03
:10033C00054609D100F0BEFB0027064613242046D3
:10034C003946ABBE044634602846F8BDF8B50546C0
:10035C0000F0B0FB00270646132420463946ABBEFE
:10036C00044634602846F8BD2DE9FF474FF00308DA
:10037C000023DFF894900124CDF8049001AFCDF860
:10038C000C80029320463946ABBE054604231A4E18
:10039C00CDF804903560CDF80C8002932046394698
:1003AC00ABBE82460823154DCDF80490C5F800A0CD
:1003BC00CDF80C80029320463946ABBE0446002192
:1003CC004FF0FF300E4A1460013404BF2B681360E9
:1003DC000C4B43F8310001311429FAD131682868EB
:1003EC0019600021126859609860D9601A615961CE
:1003FC0004B0BDE8F08700BFC0010020C40100209C
:10040C00BC010020C80100204C15000830B585B097
:10041C0001900291039201AD062420462946ABBE01
:10042C0004462046FFF782FF05B030BD70B50E467E
:10043C001546FFF761FF044630B900F03BFB09237A
:10044C0003604FF0FF3070BD2A4631460068FFF75D
:10045C00DDFF431C1FBF6368281A1B18636070BD47
:10046C00F7B50C461646FFF747FF054640B900F0B6
:10047C0021FB092303604FF0FF34204603B0F0BD8D
:10048C00022E03D900F016FB1623F3E7012E12D12E
:10049C004368E418F6D42B686F468DE818000A26DA
:1004AC0030463946ABBE06463046FFF73FFF0028C4
:1004BC00E1DB6C60E1E7022EEDD1036802AF47F897
:1004CC00083D0C2630463946ABBE06463046FFF793
:1004DC002DFF431CCFD00444DDE7FFF7C1BF30B57F
:1004EC0085B001900291039201AD05242046294666
:1004FC00ABBE04462046FFF719FF05B030BD70B502
:10050C000E461546FFF7F8FE044630B900F0D2FA55
:10051C00092303604FF0FF3070BD2A463146006856
:10052C00FFF7DDFF021EF5DB6368A81A0344954252
:10053C006360F1D1BDE870400020FFF707BF37B50D
:10054C0002AD45F8040D022420462946ABBE0446F4
:10055C002046FFF7EBFE03B030BD000038B5054672
:10056C00FFF7CAFE044630B900F0A4FA0923036071
:10057C004FF0FF3038BD013D012D09D8084B9A686A
:10058C001B699A4204D14FF0FF330360002038BD41
:10059C002068FFF7D4FF10B94FF0FF33236038BD4C
:1005AC00C8010020012070470D4B10B51968024698
:1005BC0009B90C4919606946186802448A4206D880
:1005CC0009490A4C0968A14208D08A4206D900F0B0
:1005DC0071FA0C2303604FF0FF3010BD1A6010BD90
:1005EC00B80100207802002080010020ADDEFECA98
:1005FC0070B50C46FFF780FE064630B900F05AFA8B
:10060C00092303604FF0FF3070BD63680C2543F481
:10061C00005363604FF48063E36228463146ABBEFF
:10062C0005462846FFF782FE431C1CBF20610020B4
:10063C0070BD38B50C460546002120463C22FFF71C
:10064C0053FE21462846BDE83840FFF7D1BF38B5E8
:10065C000D4604463C2200212846FFF745FE204665
:10066C00002100F011F8431C04460BD06B6829469E
:10067C0043F401436B60FFF7BBFF05462046FFF7D1
:10068C006DFF2C46204638BD2C4B2DE9F047824699
:10069C000E460025984690B053F83540EF00611C8B
:1006AC0036D00135142DF7D100F004FA18234FF091
:1006BC00FF3403603DE040F20163C6F30044B2072F
:1006CC0048BF44F002041E4218BF44F00404330730
:1006DC0048BF24F00404504648BF44F00804CDF849
:1006EC0004A0FFF7C1FD0294039001242046494663
:1006FC00ABBE0446002C06DB0023474448F83540CB
:10070C007B602C4615E02046FFF720FE044610E0E7
:10071C0006F42063B3F5206F0DF10409CBD14946E3
:10072C005046FFF794FF0130C5D000F0C3F91123F8
:10073C000360204610B0BDE8F08700BFC801002060
:10074C000EB400B50199FFF79FFF5DF804EB03B001
:10075C00704708B500F0AEF9582303604FF0FF3036
:10076C0008BD37B50090FFF77FFD0E2401906D4654
:10077C0020462946ABBE0446631C04D12046FFF735
:10078C00E5FD03B030BD0020FBE7F0B50C46054697
:10079C0038B10027112630463946ABBE064685E8EF
:1007AC00C00014B10023236063600020F0BD30B59D
:1007BC000025102420462946ABBE0446204630BDF9
:1007CC0010B50446FFF7F3FF24B1002320606360EB
:1007DC00A360E36010BD70B5FFF78EFD09250446DC
:1007EC0020B900F067F90560204670BD2846214607
:1007FC00ABBE0446012CF7D000F05CF90024064691
:10080C00132528462146ABBE05463560ECE737B5C7
:10081C00C8B10090FFF728FD122401906D462046C8
:10082C002946ABBE04462046FFF780FDFF28034651
:10083C0004D81BB1C3F30722904202D1184603B06F
:10084C0030BD5B00F5E70123F8E730B585B00C4609
:10085C000090FFF709FD019020460294FFF704FD7C
:10086C000F2403906D4620462946ABBE0446204615
:10087C00FFF75CFD003018BF0120404205B030BDD1
:10088C004FF0FF3100F000B8062930B50CBF044D15
:10089C00044D182420462946ABBE0446204630BDE4
:1008AC00230002002600020008B5024800F0CAFA34
:1008BC00FBE700BF5015000882B0002301930093A2
:1008CC002C4A136843F4803313602A4B1B6803F4DF
:1008DC0000330093019B01330193009B1BB9019BD7
:1008EC00B3F5A06FF1D1234B1B6813F4003F06D076
:1008FC0001230093009B012B04D002B0704700230E
:10090C000093F7E71C4B1A6842F010021A601A6841
:10091C0022F003021A601A6842F002021A60A3F570
:10092C0080535A685A605A685A605A6842F4806216
:10093C005A605A6822F47C125A605A6842F4E812DF
:10094C005A601A6842F080721A600A4B1B6813F0E6
:10095C00007FFAD0074B5A6822F003025A605A689B
:10096C0042F002025A60034B5B6803F00C03082B45
:10097C00F9D1C2E7001002400020024008B5FFF791
:10098C009BFF08BD08B5104B1A6842F001021A60B3
:10099C0059680E4A0A405A601A6822F0847222F48E
:1009AC0080321A601A6822F480221A605A6822F483
:1009BC00FE025A604FF41F029A60FFF7DFFF4FF000
:1009CC000062034B9A6008BD001002400000FFF863
:1009DC0000ED00E01F4B5B6803F00C03042B15D0FB
:1009EC00082B17D01BB11C4A1C4B1A6002E01A4A88
:1009FC001A4B1A60174B5B68C3F30313184AD35C8A
:100A0C00DAB216490B68D3400B607047124A134B8D
:100A1C001A60EFE70F4A53685268C3F383430233FB
:100A2C0012F4803F0AD00B4A526812F4003F0BD0EC
:100A3C000C4A02FB03F3094A1360DBE7094A02FB89
:100A4C0003F3064A1360D5E7034A02FB03F3034A98
:100A5C001360CFE70010024000127A0094010020CE
:100A6C008401002000093D00002103E00B4B5B5882
:100A7C00435004310A480B4B42189A42F6D30A4AA7
:100A8C0002E0002342F8043B084B9A42F9D3FFF7EB
:100A9C0079FFFFF705FCFFF707FF7047D01500083B
:100AAC0000000020980100209C010020740200200E
:100ABC00FEE70000014B1868704700BF1C010020C6
:100ACC0000207047014900F0E5B800BFF1110008A3
:100ADC00002310B504460360436083608181436644
:100AEC00C281036143618361194608225C30FFF7C0
:100AFC00FBFB054B24626362044BA362044BE36271
:100B0C00044B236310BD00BF810E0008A70E000824
:100B1C00DF0E0008030F00080020704770B5682531
:100B2C004A1E55430E4605F1740100F0D1F80446F7
:100B3C0040B1002180E842000C30A06005F1680251
:100B4C00FFF7D2FB204670BD014B1868FFF7BABF08
:100B5C0048150008836910B5044633BB8364C3642D
:100B6C000365124B124A1B688262984204BF012330
:100B7C00836100F01FF86060204600F01BF8A06055
:100B8C00204600F017F80022E06004216068FFF7AF
:100B9C009FFF01220921A068FFF79AFF0222122170
:100BAC00E068FFF795FF0123A36110BD481500080D
:100BBC00D10A0008F8B51C4B07461E68B36913B977
:100BCC003046FFF7C7FF4836B4687368013B03D55E
:100BDC00336833B13668F7E7B4F90C506DB168344B
:100BEC00F4E704213846FFF799FF30600028F1D173
:100BFC000C2304463B602046F8BD4FF6FF73E3819F
:100C0C0001236566A3812560A5606560256165612A
:100C1C00A5610822294604F15C00FFF765FB6563BA
:100C2C00A563A564E564E6E74815000870477047BE
:100C3C0070477047024B0349186800F00FB800BFAB
:100C4C001C010020250B0008024B0349186800F01A
:100C5C0005B800BF1C010020CD0A00082DE9F041A9
:100C6C008846002600F1480414B93046BDE8F081EE
:100C7C00A5686768013F01D52468F5E7AB89012BAE
:100C8C0006D9B5F90E30013302D02846C0470643C9
:100C9C006835EFE72DE9F84380468946002600F1D8
:100CAC00480414B93046BDE8F883A5686768013F6D
:100CBC0001D52468F5E7AB89012B07D9B5F90E30BE
:100CCC00013303D029464046C84706436835EEE752
:100CDC0070B5CD1C25F0030508350C2D38BF0C253F
:100CEC00002D064601DBA94203D90C2333600020FA
:100CFC0070BD00F029FB234A1468214691B9224C9F
:100D0C0023681BB9304600F0A5F820602946304610
:100D1C0000F0A0F8431C26D10C233046336000F0C1
:100D2C0014FBE4E70B685B1B1AD40B2B0FD90B607D
:100D3C00CC18CD50304600F008FB04F10B00231DFD
:100D4C0020F00700C31A1BD05A42E25070BD8C42EF
:100D5C000BBF63684B681360636018BF0C46E9E710
:100D6C000C464968CAE7C41C24F00304A04205D011
:100D7C00211A304600F06EF80130CDD02560D9E74D
:100D8C0070BD00BF680200206C02002070B50E46DA
:100D9C00054618B183690BB9FFF7DCFEAB69AC688B
:100DAC0013B92846FFF7D6FE234B9C4217D16C682B
:100DBC00A3891B071DD52369DBB1013EA36816F877
:100DCC00011F013BA360E9B9002B2EDA22460A2150
:100DDC00284600F095F8013011D00A2070BD174B51
:100DEC009C4201D1AC68E3E7154B9C4208BFEC6810
:100DFC00DEE72146284600F0EFF80028DDD04FF062
:100E0C00FF3070BD002B04DAA269934206DB0A297D
:100E1C0004D023685A1C22601970CFE7224628465A
:100E2C0000F06EF80130C9D1E9E70A2023685A1C9A
:100E3C002260187070BD00BF80150008A015000856
:100E4C0060150008024B01461868FFF79FBF00BFF2
:100E5C001C01002038B50023054C054608462360CC
:100E6C00FFF7A2FB431C02D1236803B12B6038BDF2
:100E7C007002002010B50C46B1F90E1000F0B2FA59
:100E8C000028ABBF636DA3891B1823F48053ACBF40
:100E9C006365A38110BD002070472DE9F0411F460A
:100EAC008B890546DB050C46164605D50223002228
:100EBC00B1F90E1000F0D2F9A389324623F4805315
:100ECC00A381B4F90E103B462846BDE8F04100F072
:100EDC0071B810B50C46B1F90E1000F0BFF9431CF7
:100EEC00A38915BF606523F4805343F48053A38119
:100EFC0018BFA38110BDB1F90E1000F0DBB80000D3
:100F0C00F8B50E461446054618B183690BB9FFF7C0
:100F1C0021FE214B9C422AD16C68A369A360A38952
:100F2C001A072ED5236963B323692068F6B2C01A59
:100F3C0063693746984204DB2146284600F052F993
:100F4C0028BBA3680130013BA36023685A1C2260B4
:100F5C001E706369984204D0A389DB0719D50A2E49
:100F6C0017D12146284600F03DF990B10FE00B4B0C
:100F7C009C4201D1AC68D0E7094B9C4208BFEC689D
:100F8C00CBE72146284600F027F80028CCD04FF0BC
:100F9C00FF373846F8BD00BF80150008A0150008C3
:100FAC0060150008024B0A4601461868FFF7A8BFF7
:100FBC001C01002038B50546084611460022054C98
:100FCC0022601A46FFF79BFA431C02D1236803B137
:100FDC002B6038BD70020020324B70B51D68064680
:100FEC000C4625B1AB6913B92846FFF7B3FD2E4B60
:100FFC009C420FD16C68B4F90C309AB215072CD402
:10100C00D00611D40922326043F04003A3814FF083
:10101C00FF3070BD254B9C4201D1AC68EBE7244BF3
:10102C009C4208BFEC68E6E7510712D5616B41B1F1
:10103C0004F14403994202D0304600F087F90023B2
:10104C006363A38923F02403A381002363602369D2
:10105C002360A38943F00803A38123694BB9A389B7
:10106C0003F42073B3F5007F03D02146304600F023
:10107C002BF9A28912F001030CD00023A360636941
:10108C005B42A361236953B9B4F90C3013F08000AF
:10109C00BAD170BD920758BF6369A360F2E7002014
:1010AC00F7E700BF1C01002080150008A015000800
:1010BC006015000838B50023054C0546084623602A
:1010CC00FFF74CFA431C02D1236803B12B6038BDE7
:1010DC00700200208A892DE9F041054610070C4664
:1010EC005AD44B68002B05DC0B6C002B02DC002067
:1010FC00BDE8F081E66A002EF9D0002312F480528C
:10110C002F682B6033D0606DA3895A0705D56368AF
:10111C00C01A636B0BB1236CC01A00230246E66A3B
:10112C00216A2846B047431CA38906D129681D298A
:10113C004BD82B4ACA40D60747D500226260226999
:10114C00D904226004D5421C01D12B6803B9606517
:10115C00616B2F600029CAD004F14403994202D07C
:10116C00284600F0F3F800206063BDE8F081216AA6
:10117C0001232846B047411CC6D12B68002BC3D095
:10118C001D2B01D0162B01D12F60B0E7A38943F0A2
:10119C004003A381BDE8F0810F69002FA7D093070E
:1011AC0018BF00230E6808BF4B69A6EB07080F6039
:1011BC008B60B8F1000F9ADD43463A46216A284607
:1011CC00A66AB047002807DCA38943F04003A3813B
:1011DC004FF0FF30BDE8F0810744A8EB0008E8E7CA
:1011EC000100402038B50B6905460C46DBB118B13F
:1011FC0083690BB9FFF7AEFC0C4B9C4209D16C68B0
:10120C00B4F90C307BB121462846BDE83840FFF7D5
:10121C0061BF074B9C4201D1AC68F1E7054B9C4286
:10122C0008BFEC68ECE7002038BD00BF8015000853
:10123C00A015000860150008014620B9044B0549AB
:10124C001868FFF727BD044B1868FFF7CBBF00BF2A
:10125C0048150008F11100081C01002038B505469E
:10126C00084611460022054C22601A46FFF735F954
:10127C00431C02D1236803B12B6038BD70020020DF
:10128C0070B50E46B1F90E1090B0002914461D46EB
:10129C0007DA00232B60B3891A0610D44FF480634D
:1012AC000EE001AA00F01AF90028F2DB029A02F40F
:1012BC007042A2F500535A425A412A60EEE740238D
:1012CC000020236010B070BD8B8973B59D07064656
:1012DC000C4607D504F147032360236101236361A6
:1012EC0002B070BD01AB6A46FFF7CAFF0099054614
:1012FC003046FFF7EDFC48B9B4F90C309A05EFD441
:10130C0023F0030343F00203A381E3E70D4BB36225
:10131C00A389206043F08003A381009B206163615B
:10132C00019B5BB1B4F90E10304600F0E9F828B11E
:10133C00A38923F0030343F00103A381A3891D4375
:10134C00A581CDE7D10A00087047704738B505462E
:10135C00002943D051F8043C0C1F002BB8BFE418F3
:10136C00FFF7F2FF1E4A1368104633B9636014602E
:10137C002846BDE83840FFF7E8BFA3420BD92168E7
:10138C006218934201BF1A685B685218226063604E
:10139C000460EDE713465A680AB1A242FAD91968FB
:1013AC005818A0420BD12068014458188242196089
:1013BC00DED110685268014419605A60D8E702D92E
:1013CC000C232B60D4E7206821188A4201BF1168D6
:1013DC0052680918216062605C60C9E738BD00BFC3
:1013EC006802002038B50546084611460022054C17
:1013FC0022601A46FFF71AF8431C02D1236803B186
:10140C002B6038BD7002002038B50C4609680546C3
:10141C0009B1FFF7F9FF21462846BDE83840FFF730
:10142C0095BF00002C4B70B51B680446834251D00D
:10143C00436AABB1DB686BB10025636ADB68595951
:10144C00002941D10435802DF7D1636A2046D96833
:10145C00FFF77CFF636A196811B12046FFF776FF2E
:10146C00616911B12046FFF771FF616A11B1204625
:10147C00FFF76CFFA16B11B12046FFF767FFE16B23
:10148C0011B12046FFF762FF216C11B12046FFF726
:10149C005DFFE16D11B12046FFF758FFA16D11B151
:1014AC002046FFF753FF616B11B12046FFF74EFF4B
:1014BC00A3697BB1A36A20469847A16C51B1204621
:1014CC00BDE87040FFF7A0BF0E682046FFF73EFF57
:1014DC003146B5E770BD00BF1C01002038B50023B4
:1014EC00064C0546084611462360FFF7A2F8431C3C
:1014FC0002D1236803B12B6038BD00BF70020020FD
:10150C0038B50023054C054608462360FFF763F900
:10151C00431C02D1236803B12B6038BD700200203C
:10152C0000000000F8B500BFF8BC08BC9E46704730
:0C153C00F8B500BFF8BC08BC9E46704724
:10154800200100203A74740048656C6C6F20576F56
:10155800726C642100000000000000000000000020
:101568000000000000000000000000000000000073
:101578000000000000000000000000000000000063
:101588000000000000000000000000000000000053
:101598000000000000000000000000000000000043
:1015A8000000000000000000000000000000000033
:0815B80000000000000000002B
:0815C000B8EBFF7F0100000001
:0415C80031010008E5
:0415CC000D01000805
:1015D000000000000000000000000000000000000B
:1015E00000000000000000000000000000000000FB
:1015F00000000000000000000000000000000000EB
:1016000000000000000000000000000000000000DA
:1016100000000000000000000000000000000000CA
:1016200000000000000000000000000000000000BA
:1016300000000000000000000000000000000000AA
:10164000000000000000000000000000000000009A
:10165000000000000000000000000000000000008A
:10166000000000000000000000000000000000007A
:10167000000000000000000000000000000000006A
:10168000000000000000000000000000000000005A
:10169000000000000000000000000000000000004A
:1016A000000000000000000000000000000000003A
:1016B000000000000000000000000000000000002A
:1016C000000000000000000000000000000000001A
:1016D000000000000000000000000000000000000A
:1016E0000000000014000020FF0000002001002086
:1016F0000000000080150008A01500086015000813
:1017000000000000000000000000000000000000D9
:1017100000000000000000000000000000000000C9
:1017200000000000000000000000000000000000B9
:1017300000000000000000000000000000000000A9
:101740000000000000000000000000000000000099
:10175000ADDEFECA0000000000000000010203042C
:081760000607080900A24A0473
:04176800000000007D
:0400000508000A7570
:00000001FF
