:020000040800F2
:1000000000C0002079110008C1110008C1110008CA
:10001000C1110008C1110008C11100080000000052
:10002000000000000000000000000000C1110008F6
:10003000C111000800000000C1110008C111000832
:10004000C1110008C1110008C1110008C111000848
:10005000C1110008C1110008C1110008C111000838
:10006000C1110008C1110008C1110008C111000828
:10007000C1110008C1110008C1110008C111000818
:10008000C1110008C1110008C1110008C111000808
:10009000C1110008C1110008C1110008C1110008F8
:1000A000C1110008C1110008C1110008C1110008E8
:1000B000C1110008C1110008C1110008C1110008D8
:1000C000C1110008C1110008C1110008C1110008C8
:1000D000C1110008C1110008C1110008C1110008B8
:1000E000C1110008C1110008C11100080000000082
:1000F0000000000000000000000000000000000000
:0C01000000000000000000005FF808F1A3
:10010C0010B5054C237833B9044B13B10448AFF345
:10011C0000800123237010BDA0010020000000000E
:10012C005426000808B5034B1BB103490348AFF331
:10013C00008008BD00000000A40100205426000827
:10014C00002A01D002F5807A704700BF162031A139
:10015C00ABBE30484168002901D0364A11600168B5
:10016C00002901D1324901608168C2682A4B0029FB
:10017C0000D00B469D46FFF7E3FF00218B460F4650
:10018C002648274A121A00F063FA00F0D1FC152019
:10019C002649ABBE25490968002001B40B78013112
:1001AC00002B15D0202BF9D0222B01D0272B01D1DD
:1001BC001A0001E02022013902B401300B78013120
:1001CC00002B05D09A42F9D100224B1E1A70E5E79C
:1001DC006946020092006A446B469A4206D9043A78
:1001EC0014681D6815601C600433F6E76C4607251F
:1001FC00AC43A54604000D000A48002802D00A486A
:10020C00AFF3008000F000FA2000290000F03CFE63
:10021C0000F0E6F90400002000000000A00100201E
:10022C0090020020000000000000000014010020DB
:10023C009002002080010020BC2700080000002054
:10024C00A0010020A0010020900200204FF0FF0C24
:10025C001CEAD0521EBF1CEAD15392EA0C0F93EA4F
:10026C000C0F6FD01A4480EA010C400218BF5FEAF1
:10027C0041211ED04FF0006343EA501043EA511164
:10028C00A0FB01310CF00040B1F5000F3EBF49005E
:10029C0041EAD3715B0040EA010062F17F02FD2A62
:1002AC001DD8B3F1004F40EBC25008BF20F0010045
:1002BC00704790F0000F0CF0004C08BF49024CEA5C
:1002CC00502040EA51207F3AC2BFD2F1FF0340EAEE
:1002DC00C250704740F400004FF00003013A5DDC5F
:1002EC0012F1190FDCBF00F000407047C2F10002A0
:1002FC00410021FA02F1C2F1200200FA02FC5FEA8D
:10030C00310040F1000053EA4C0308BF20EADC70D6
:10031C00704792F0000F00F0004C02BF400010F448
:10032C00000F013AF9D040EA0C0093F0000F01F0F5
:10033C00004C02BF490011F4000F013BF9D041EA17
:10034C000C018FE70CEAD15392EA0C0F18BF93EA19
:10035C000C0F0AD030F0004C18BF31F0004CD8D143
:10036C0080EA010000F00040704790F0000F17BFCA
:10037C0090F0004F084691F0000F91F0004F14D010
:10038C0092EA0C0F01D142020FD193EA0C0F03D168
:10039C004B0218BF084608D180EA010000F000406B
:1003AC0040F0FE4040F40000704740F0FE4040F446
:1003BC004000704780F0004002E000BF81F0004137
:1003CC0042001FBF5FEA410392EA030F7FEA226CEF
:1003DC007FEA236C6AD04FEA1262D2EB1363C1BF7F
:1003EC00D218414048404140B8BF5B42192B88BFEE
:1003FC00704710F0004F40F4000020F07F4018BF11
:10040C00404211F0004F41F4000121F07F4118BF30
:10041C00494292EA030F3FD0A2F1010241FA03FCD8
:10042C0010EB0C00C3F1200301FA03F100F00043C0
:10043C0002D5494260EB4000B0F5000F13D3B0F188
:10044C00807F06D340084FEA310102F10102FE2AF7
:10045C0051D2B1F1004F40EBC25008BF20F0010067
:10046C0040EA03007047490040EB0000013A28BF06
:10047C00B0F5000FEDD2B0FA80FCACF1080CB2EB89
:10048C000C0200FA0CF0AABF00EBC2505242184307
:10049C00BCBFD0401843704792F0000F81F40001AC
:1004AC0006BF80F400000132013BB5E74FEA41037F
:1004BC007FEA226C18BF7FEA236C21D092EA030FEB
:1004CC0004D092F0000F08BF0846704790EA010F65
:1004DC001CBF0020704712F07F4F04D1400028BF92
:1004EC0040F00040704712F100723CBF00F5000074
:1004FC00704700F0004343F0FE4040F400007047AA
:10050C007FEA226216BF08467FEA23630146420255
:10051C0006BF5FEA412390EA010F40F48000704768
:10052C004FF0000304E000BF10F0004348BF40420E
:10053C005FEA000C08BF704743F0964301464FF04A
:10054C0000001CE050EA010208BF70474FF00003A6
:10055C000AE000BF50EA010208BF704711F00043E7
:10056C0002D5404261EB41015FEA010C02BF8446B7
:10057C000146002043F0B64308BFA3F18053A3F516
:10058C000003BCFA8CF2083AA3EBC25310DB01FA5D
:10059C0002FC634400FA02FCC2F12002BCF1004FE1
:1005AC0020FA02F243EB020008BF20F00100704772
:1005BC0002F1200201FA02FCC2F1200250EA4C00C6
:1005CC0021FA02F243EB020008BF20EADC7070470C
:1005DC00034613F8012B002AFBD1181A0138704777
:1005EC0008B5074B044613B10021AFF30080054B4F
:1005FC001868836A03B19847204600F091FB00BF4E
:10060C00000000007026000870B500260C4D0D4C43
:10061C00641BA410A64209D102F018F800260A4D5A
:10062C000A4C641BA410A64205D170BD55F8043BBE
:10063C0098470136EEE755F8043B98470136F2E748
:10064C00B4270008B4270008B4270008B82700080E
:10065C0003460244934200D1704703F8011BF9E7AB
:10066C000A4B10B50446186818B183690BB900F031
:10067C0051FE132C07D8064850F83420013202D012
:10068C0000EBC40010BD0020FCE700BF1C010020E3
:10069C00CC010020F8B5431C044609D100F0BEFD86
:1006AC0013260546002730463946ABBE06462E605B
:1006BC002046F8BDF8B5044600F0B0FD13260546FB
:1006CC00002730463946ABBE064620462E60F8BDA4
:1006DC0030B585B00624CDE90101039201AD204669
:1006EC002946ABBE04462046FFF7D4FF05B030BD0B
:1006FC0070B50E461546FFF7B3FF044630B900F04F
:10070C008DFD092303604FF0FF3070BD2A46314642
:10071C000068FFF7DDFF431C1FBF6368281A1B1816
:10072C006360F2E7F7B50C461646FFF799FF0546EE
:10073C0040B900F073FD092303604FF0FF342046ED
:10074C0003B0F0BD022E03D900F068FD1623F3E7C9
:10075C00012E12D14368E418F6D42B680A266F4692
:10076C00CDE9003430463946ABBE06463046FFF77D
:10077C0091FF0028E1DB6C60E1E7022EEDD103680C
:10078C000C266F46009330463946ABBE06463046C3
:10079C00FFF780FF431CD0D00444DEE7FFF7C2BF55
:1007AC0030B585B00524CDE90101039201AD204699
:1007BC002946ABBE04462046FFF76CFF05B030BDA2
:1007CC0070B50E461546FFF74BFF044630B900F0E6
:1007DC0025FD092303604FF0FF3070BD2A463146DA
:1007EC000068FFF7DDFF031EF5DB6268E81A0244C0
:1007FC00AB426260F1D1BDE870400020FFF75ABFF8
:10080C0037B50224019001AD20462946ABBE044603
:10081C002046FFF73FFF03B030BD000038B505465A
:10082C00FFF71EFF044630B900F0F8FC0923036003
:10083C004FF0FF3038BD013D012D09D8094B9A68A6
:10084C001B699A4204D14FF0FF3303600020F1E79B
:10085C002068FFF7D5FF0028ECD14FF0FF33236061
:10086C00E8E700BFCC010020012070470D4A034689
:10087C00116810B509B90C49116069461068034438
:10088C008B4206D809490A4C0968A14208D08B4210
:10089C0006D900F0C3FC0C2303604FF0FF3010BDF1
:1008AC001360FCE7BC0100209002002080010020B6
:1008BC00ADDEFECA70B50C46FFF7D2FE054630B968
:1008CC0000F0ACFC092303604FF0FF3070BD63688F
:1008DC000C2643F4005363604FF48063A3643046EA
:1008EC002946ABBE05462846FFF7D4FE431C1CBF69
:1008FC0020610020EAE70B4610B50021044658227F
:10090C001846FFF7A5FE01462046BDE81040FFF74C
:10091C00D1BF38B50D460446582200212846FFF7B2
:10092C0097FE2046002100F011F8431C04460BD022
:10093C006B68294643F401436B60FFF7BBFF054628
:10094C002046FFF76BFF2C46204638BD2B4B2DE97C
:10095C00F04381460F4600251E4697B053F83540AC
:10096C00611C37D00135142DF8D100F057FC182339
:10097C004FF0FF3403603DE040F20163C7F30044E5
:10098C00BA0748BF44F002041F4218BF44F00404E5
:10099C003B0748BF24F00404484648BF44F0080411
:1009AC00CDF80090FFF714FECDE90140012420465C
:1009BC004146ABBE0446002C07DB002346F835400D
:1009CC0006EBC5062C46736014E02046FFF772FE5A
:1009DC0004460FE007F42063B3F5206FE846CBD153
:1009EC0041464846FFF795FF0130C5D000F016FC94
:1009FC0011230360204617B0BDE8F083CC01002022
:100A0C000EB400B50199FFF7A1FF5DF804EB03B03C
:100A1C00704700002DE9F74306460F462A4800218F
:100A2C001546FFF793FF04462A4600213046FFF790
:100A3C000FFE631C16D02046FFF712FE4FF00C0879
:100A4C00814640464946ABBE80464046FFF722FEF3
:100A5C00032802DDC31EAB4208DC2046FFF7DEFE96
:100A6C004FF0FF34204603B0BDE8F083042220464B
:100A7C000DEB0201FFF73CFE0328EEDD9DF8043080
:100A8C00532BEAD19DF80530482BE6D19DF8063062
:100A9C00462BE2D19DF80730422BDED1012239469C
:100AAC002046FFF73FFE0028D7DB2A46314620467A
:100ABC00FFF71EFE05462046FFF7B0FE2846FFF75F
:100ACC00E9FD0446CEE700BF7426000837B50021C7
:100ADC000122094D094C01A829602260FFF79AFFF9
:100AEC00002807DD9DF8043003F0010203F0020337
:100AFC002A60236003B030BD8401002088010020EF
:100B0C0010B5044C2268002A01DAFFF7DFFF2068D9
:100B1C0010BD00BF8401002010B5044C2268002ACF
:100B2C0001DAFFF7D3FF206810BD00BF8801002059
:100B3C002DE9F04F03230024DFF8AC9085B0CDF8FD
:100B4C0004900DF1040803930125029428464146B4
:100B5C00ABBE0546204A23464FF0FF3114461F4ECC
:100B6C00356042F833100133142BFAD1FFF7D4FF60
:100B7C001B4DD0B14FF0030A0423CDF8049001278C
:100B8C00CDF80CA0029338464146ABBE8346154BBC
:100B9C00CDF80490C3F800B00823CDF80CA0029354
:100BAC0038464146ABBE07462F602B68013302BF67
:100BBC000C4B1B682B603368002623606660FFF7C4
:100BCC00ABFF30B1074B1B68C4E902362B68C4E994
:100BDC00043605B0BDE8F08FCC010020C401002024
:100BEC00C0010020C80100208A26000808B500F0CA
:100BFC0015FB582303604FF0FF3008BD37B500904C
:100C0C00FFF7E6FC0E246D46019020462946ABBE4C
:100C1C000446631C04D12046FFF74CFD03B030BDE5
:100C2C000020FBE7F0B50C46054650B10027112615
:100C3C0030463946ABBE06463246F317C5E90023AB
:100C4C00AF6014B10023C4E900330020F0BD30B50F
:100C5C001024002520462946ABBE0446204630BD54
:100C6C0010B50446FFF7F3FF24B10023C4E90133A8
:100C7C002060E36010BD70B5FFF7F2FC0925044657
:100C8C0020B900F0CBFA0560204670BD28462146FD
:100C9C00ABBE0446012CF7D000F0C0FA0024054688
:100CAC00132630462146ABBE06462E60ECE737B520
:100CBC00C8B10090FFF78CFC12246D4601902046C1
:100CCC002946ABBE04462046FFF7E4FCFF2803464A
:100CDC0002D903B030BD40000028FAD0C0F307227F
:100CEC009A42F6D0F7E70120F3E730B585B00C4611
:100CFC000090FFF76DFCCDE901042046FFF768FC7E
:100D0C000F246D46039020462946ABBE0446204670
:100D1C00FFF7C0FC003818BF0120404205B030BDC1
:100D2C00014608B54FF0FF30014A00F003F800BF50
:100D3C002600020007B5CDE90021FFF7E1FE0028EF
:100D4C0014BF20241824FFF7DBFE20B16D4620468B
:100D5C002946ABBE0446009DF9E70000062908B5FC
:100D6C000CBF024A024AFFF7E5FF00BF2300020056
:100D7C00260002000023C360036143617047002317
:100D8C00C3600361436170472DE9F0438669C26912
:100D9C003446F517D317921943EBE6739646B3EB2B
:100DAC00E27F03D06FF0004E8EEAE37ED0F820C0D5
:100DBC00E0464FEAEC791CEB0E0649EBEE77B646B3
:100DCC00B7EBE67F03D06FF0004E8EEAE77EC0F8FB
:100DDC0000E018EB080249EB09031646B3EBE27F7F
:100DEC0003D06FF0004686EAE376A21945EBE67372
:100DFC001446B3EBE27F03D06FF0004484EAE37453
:100E0C0064424460C0F808C009B9BDE8F08300230F
:100E1C00C36003614361F8E7F8B504460E46876981
:100E2C00C1693846FFF7CCFA256A2946FFF7C8FA9C
:100E3C00206029462846FFF7C3FA01463846FFF7DB
:100E4C00BFFA00F100406060A56006B9F8BD002350
:100E5C00E36023616361F9E7084B1B6863B1084ADF
:100E6C00136843F080731360064B00221A60034A28
:100E7C00136843F001031360704700BF001000E0DB
:100E8C00FCED00E0041000E02DE9F04F95B0FFF709
:100E9C00E3FF3F4C25683F4B119312933E4B13934A
:100EAC0001210BA8FFF770FF2168491B3B4800F09C
:100EBC0081FB27680B98C317394EA0FB060106FB74
:100ECC0003110C9A4FEAE2790E9D4FEAE57B02FB87
:100EDC000BFC05FB09CCA2FB0523634410EB020CB5
:100EEC0041EB030EDDF834904FEAE97BDDF83C80F2
:100EFC004046C11709FB01F208FB0B23A9FB08892B
:100F0C0099441CEB08034EEB0902DB0F43EA420346
:100F1C00109A13440F950E96109301932168C91BD8
:100F2C00204800F047FB25681F4B089309931F4B83
:100F3C000A93012102A8FFF76FFF2168491B1C4887
:100F4C0000F038FB26681B490298FFF77FF905462D
:100F5C00059F03993846FFF779F92946FFF730FAD0
:100F6C00054606990498FFF771F901462846FFF7E4
:100F7C0027FA0799FFF724FA06970E4A059207906D
:100F8C0000902168891B0C4800F014FBFEE700BFA1
:100F9C00041000E080666626A09999199026000836
:100FAC00C0999919B42600089A99993ECDCC4C3E1B
:100FBC00D4260008CECC4C3EF826000882B0002384
:100FCC00019300932C4A136843F4803313602A4B2B
:100FDC001B6803F400330093019B01330193009BC6
:100FEC001BB9019BB3F5A06FF1D1234B1B6813F414
:100FFC00003F06D001230093009B012B04D002B0CC
:10100C00704700230093F7E71C4B1A6842F010025C
:10101C001A601A6822F003021A601A6842F002027F
:10102C001A60A3F580535A685A605A685A605A6815
:10103C0042F480625A605A6822F47C125A605A68F0
:10104C0042F4E8125A601A6842F080721A600A4B35
:10105C001B6813F0007FFAD0074B5A6822F003028A
:10106C005A605A6842F002025A60034B5B6803F004
:10107C000C03082BF9D1C2E70010024000200240FB
:10108C0008B5FFF79BFF08BD08B5104B1A6842F076
:10109C0001021A6059680E4A0A405A601A6822F016
:1010AC00847222F480321A601A6822F480221A6048
:1010BC005A6822F4FE025A604FF41F029A60FFF73E
:1010CC00DFFF044B4FF000629A6008BD0010024035
:1010DC000000FFF800ED00E01F4B5B6803F00C0311
:1010EC00042B15D0082B17D01BB11C4B1C4A1A60B3
:1010FC0002E01A4B1A4A1A60174B5B68C3F30313CE
:10110C00184AD35CDAB215490B68D3400B607047B0
:10111C00124B134A1A60EFE70F4A53685268C3F335
:10112C008343023312F4803F05D10F4A02FB03F3D1
:10113C000A4A1360E0E7084A526812F4003F05D0EF
:10114C00094A02FB03F3054A1360D5E7044A02FB84
:10115C0003F3024A1360CFE7001002409C01002009
:10116C0000127A008C01002000093D00002103E0F0
:10117C000B4B5B58435004310A480B4B42189A42B4
:10118C00F6D30A4A02E0002342F8043B084B9A4289
:10119C00F9D3FFF779FFFFF737FAFFF775FE7047C2
:1011AC00BC27000800000020A0010020A0010020A6
:1011BC0090020020FEE7000008B5FFF78DFF094BF9
:1011CC001B68094AA2FB03239B0C013B074A536093
:1011DC00074BF02183F8231000239360072313603F
:1011EC0008BD00BF9C01002083DE1B4310E000E023
:1011FC0000ED00E030B40549D1E90023541C43F163
:10120C000005C1E9004530BC704700BF70020020EA
:10121C00014BD3E90001704770020020014B1868A4
:10122C00704700BF1C010020002310B50446C0E924
:10123C000033C0E90433836081814366C2818361DA
:10124C00194608225C30FFF703FA054B24626362EF
:10125C00044BA362044BE362044B236310BD00BF39
:10126C0011160008371600086F16000893160008B0
:10127C00014900F006B900BFED17000808B5436E30
:10128C00DA0705D483899B0502D4806D00F01DF923
:10129C00002008BD08B5436EDA0705D483899B0589
:1012AC0002D4806D00F017F9002008BD70B56825D8
:1012BC004A1E55430E4605F1740100F00DF9044623
:1012CC0040B10021C0E900160C30A06005F16802A5
:1012DC00FFF7BEF9204670BD014B1868FFF7C8BF79
:1012EC0070260008014800F0F0B800BF880200200A
:1012FC00014800F0F0B800BF88020020014800F05F
:10130C00E4B800BF83020020014800F0E4B800BF3D
:10131C008302002010B50446FFF7F0FFA3691BB150
:10132C00BDE81040FFF7F0BFC4E912332365134B3F
:10133C00134A1B68A262A34208BF0123204608BFC0
:10134C00A36100F01FF86060204600F01BF8A0605D
:10135C00204600F017F800220421E0606068FFF7D7
:10136C0063FF01220921A068FFF75EFF0222122110
:10137C00E068FFF759FF0123A361D1E7702600084D
:10138C007D120008F8B50746FFF7ACFF1E4B1E6830
:10139C00B36913B93046FFF7BDFF4836D6E90134BF
:1013AC00013B03D533680BB33668F7E7B4F90C503F
:1013BC00D5B9164B04F15800E360656600F081F86E
:1013CC00FFF796FF08222946C4E90155C4E90455E4
:1013DC002560A56104F15C00FFF73AF9C4E90D55ED
:1013EC00C4E912552046F8BD6834D9E704213846C3
:1013FC00FFF75CFF044630600028D5D1FFF778FF7B
:10140C000C233B60EEE700BF702600080100FFFFD5
:10141C0008B5FFF767FF034B03491868BDE80840A0
:10142C0000F012B81C0100208912000808B5044B0A
:10143C000449186800F008F8BDE80840FFF758BFE9
:10144C001C010020A11200082DE9F0410F460026D6
:10145C0000F14804D4E90185B8F1010805D52468E8
:10146C00002CF7D13046BDE8F081AB89012B06D9B1
:10147C00B5F90E30013302D02846B847064368351B
:10148C00EAE72DE9F84306468846002700F14804B0
:10149C00D4E90195B9F1010905D52468002CF7D1DF
:1014AC003846BDE8F883AB89012B07D9B5F90E3066
:1014BC00013303D029463046C04707436835E9E776
:1014CC0070477047704770477047704701207047EE
:1014DC000120704770477047F8B5CD1C25F0030507
:1014EC0008350C2D38BF0C25002D064601DBA94212
:1014FC0003D90C2333600020F8BD00F0D1F9214949
:10150C000A6814469CB9204F3B6823B921463046E3
:10151C0000F068F838602946304600F063F8431C48
:10152C0023D10C233046336000F0C0F9E3E7236885
:10153C005B1B17D40B2B03D923601C44256004E0E0
:10154C006368A2420CBF0B605360304600F0AEF9EA
:10155C0004F10B00231D20F00700C21ACCD01B1A7B
:10156C00A350C9E722466468CCE7C41C24F00304EA
:10157C00A042E3D0211A304600F034F80130DDD11E
:10158C00CFE700BF780200207C0200200EB417B514
:10159C00044618B183690BB9FFF7BCFE06AB2046B5
:1015AC00059AA168019300F007FA03B0BDE810405A
:1015BC0003B070470FB40A4B13B51C6824B1A36970
:1015CC0013B92046FFF7A6FE05AB2046049AA16886
:1015DC00019300F0F1F902B0BDE8104004B070477F
:1015EC001C01002038B50023054D044608462B602D
:1015FC00FFF73CF9431C02D12B6803B1236038BDC3
:10160C008C02002010B50C46B1F90E1000F0A4FCB1
:10161C000028ABBF636DA3891B1823F48053ACBFA8
:10162C006365A38110BD002070472DE9F0411F4672
:10163C008B890546DB050C46164605D50223002290
:10164C00B1F90E1000F01AF9A389324623F4805335
:10165C00A38128463B46B4F90E10BDE8F04100F0DA
:10166C0017B810B50C46B1F90E1000F007F9431C71
:10167C00A38915BF606523F4805343F48053A38181
:10168C0018BFA38110BDB1F90E1000F013B8000003
:10169C0038B50446084611460022054D2A601A4604
:1016AC00FFF78EF8431C02D12B6803B1236038BDC1
:1016BC008C02002038B50023054D044608462B60EB
:1016CC00FFF7ACF8431C02D12B6803B1236038BD83
:1016DC008C0200208A892DE9F041054610070C4642
:1016EC0058D44B68002B05DC0B6C002B02DC002063
:1016FC00BDE8F081E66A002EF9D0002312F4805286
:10170C002F682B6032D0606DA3895A0705D56368AA
:10171C00C01A636B0BB1236CC01A00230246E66A35
:10172C002846216AB047431CA38906D129681D2984
:10173C002CD82A4ACA40D60728D5002262602269D2
:10174C00D904226004D5421C01D12B6803B9606511
:10175C00616B2F600029CAD004F14403994202D076
:10176C00284600F0A9F800206063C1E7216A012334
:10177C002846B047411CC7D12B68002BC4D01D2B69
:10178C0001D0162B01D12F60B1E7A38943F04003A0
:10179C00A381ADE70F69002FA9D0930718BF0023D1
:1017AC000E6808BF4B69A6EB07080F608B60B8F199
:1017BC00000F9CDD43463A462846216AA66AB0478C
:1017CC00002806DCA3894FF0FF3043F04003A381CF
:1017DC008EE70744A8EB0008E9E700BF01004020B2
:1017EC0038B50B6905460C4613B90025284638BD9B
:1017FC0018B183690BB9FFF78DFD144B9C421BD1BB
:10180C006C68B4F90C30002BEFD0626ED00704D4A6
:10181C00990502D4A06DFFF758FE28462146FFF724
:10182C0059FF636E0546DA07E0D4A3899B05DDD426
:10183C00A06DFFF750FED9E7054B9C4201D1AC6877
:10184C00DFE7044B9C4208BFEC68DAE73827000856
:10185C005827000818270008014620B9044B0549F1
:10186C001868FFF70EBE044B1868FFF7B9BF00BF2E
:10187C0070260008ED1700081C01002038B504463E
:10188C00084611460022054D2A601A46FEF786FFCF
:10189C00431C02D12B6803B1236038BD8C0200209D
:1018AC000148FFF712BE00BF840200200148FFF779
:1018BC0012BE00BF8402002038B50546002943D073
:1018CC0051F8043C0C1F002BB8BFE418FFF7E8FFDD
:1018DC001E4A1368104633B9636014602846BDE88D
:1018EC003840FFF7E3BFA3420AD92168621893423C
:1018FC0001BF1A685B685218226063600460EDE7F0
:10190C001A465B680BB1A342FAD911685018A04271
:10191C000BD120680144501883421160DED1186845
:10192C005B68014411605360D8E702D90C232B602B
:10193C00D4E7206821188B4201BF19685B6809182D
:10194C00216063605460C9E738BD00BF7802002095
:10195C00936810B4013B002B936007DA9469A3429F
:10196C0001DB0A2902D110BC00F072BB1368581CB1
:10197C0010601970084610BC7047F8B506460F4643
:10198C001446D518AC4201D1002007E03A46304647
:10199C0014F8011BFFF7DCFF431CF3D1F8BD38B57D
:1019AC0093681446002513B91846536038BD00F0EF
:1019BC0017FCC4E90155F9E72DE9F04F0D46144623
:1019CC00984606469DB018B183690BB9FFF7A2FC87
:1019DC00894B9D421BD175686B6ED90705D4AB89B9
:1019EC009A0502D4A86DFFF770FDAB891B0701D5D2
:1019FC002B69EBB92946304600F084FBC0B16B6E05
:101A0C00DC070ED54FF0FF301DB0BDE8F08F7B4BDF
:101A1C009D4201D1B568DFE7794B9D4208BFF5685F
:101A2C00DAE7AB899805EDD4A86DFFF754FDE9E72B
:101A3C000023099320238DF8293030234FF001091E
:101A4C00CDF80C80DFF8BC818DF82A3023469A46FD
:101A5C0013F8012B0AB1252AF9D1BAEB040B0BD0E0
:101A6C005B46224629463046FFF787FF013000F0DF
:101A7C00AA80099A5A4409929AF80030002B00F077
:101A8C00A28000234FF0FF32CDE905230AF1010AB1
:101A9C00049307938DF853301A935446052214F887
:101AAC00011B584800F04AFD049AD8B9D10644BF2E
:101ABC0020238DF85330130744BF2B238DF853305C
:101ACC009AF800302A2B15D0544600204FF00A0CFF
:101ADC00079A214611F8013B303B092B4ED9B0B186
:101AEC00079214E0A0EB080309FA03F31343A24690
:101AFC000493D2E7039B191D1B680391002BBBBFFA
:101B0C005B4242F0020207930793B8BF049223781A
:101B1C002E2B0CD163782A2B35D1039B02341A1D42
:101B2C001B680392002BB8BF4FF0FF330593DFF80F
:101B3C00E4A003225046217800F000FD40B1402380
:101B4C00A0EB0A0003FA00F0049B01340343049356
:101B5C0014F8011B06222C488DF8281000F0EEFC1E
:101B6C0000283FD0294B1BBB039B073323F00703F3
:101B7C0008330393099B3B44099367E70C46012008
:101B8C000CFB0232A5E700234FF00A0C1946013476
:101B9C000593204610F8012B303A092A03D9002B63
:101BAC00C5D00591C3E7044601230CFB0121F0E7E6
:101BBC0003AB00932A463046154B04A9AFF30080C3
:101BCC000746781CD6D16B6ED90705D4AB899A051C
:101BDC0002D4A86DFFF77FFCAB895B063FF512AF13
:101BEC00099811E703AB00932A463046084B04A929
:101BFC0000F08CF8E4E700BF3827000858270008ED
:101C0C001827000878270008822700080000000029
:101C1C00871900087E27000813460A460146024829
:101C2C000068FFF7C9BE00BF1C0100202DE9F0477A
:101C3C00164699468A680B6907469342B8BF134605
:101C4C00336091F843200C46DDF820800AB1013353
:101C5C0033602368990642BF3368023333602568CA
:101C6C0015F0060506D104F1190AE36832689B1ACF
:101C7C00AB4228DC94F84320131E226818BF0123C2
:101C8C0092062DD44946384604F14302C047013030
:101C9C0020D02368E56803F00603042B18BF002549
:101CAC0032684FF00006A36808BFAD1A226908BF5E
:101CBC0025EAE5759342C4BF9B1AED181A34B54258
:101CCC001AD1002008E00123524649463846C04745
:101CDC00013003D14FF0FF30BDE8F0870135C4E788
:101CEC003020E11881F843005A1C94F84510224426
:101CFC00023382F84310C5E7012322464946384691
:101D0C00C0470130E6D00136D9E700002DE9FF4786
:101D1C000C46277E9146782F80469A460C9904F102
:101D2C00430207D8622F0AD8002F00F0D980582F11
:101D3C0000F0A48004F1420684F842703AE0A7F166
:101D4C006303152BF6D801A050F823F0B11D000841
:101D5C00C51D0008411D0008411D0008411D00085B
:101D6C00411D0008C51D0008411D0008411D00084B
:101D7C00411D0008411D0008D31E0008F51D000878
:101D8C00B51E0008411D0008411D0008F51E000885
:101D9C00411D0008F51D0008411D0008411D0008EB
:101DAC00BD1E00080B6804F142061A1D1B680A6070
:101DBC0084F842300123A4E0256808682E0600F15F
:101DCC0004030AD505680B60002D03DA2D236D4240
:101DDC0084F843300A235E4819E015F0400F05687B
:101DEC000B6018BF2DB2EFE70B682568181D086053
:101DFC00280601D51D6802E06906FBD51D886F2FEA
:101E0C000CBF08230A235248002184F8431066684B
:101E1C00002EA8BF2168A660A4BF21F00401216098
:101E2C000DB9002E4DD01646B5FBF3F103FB11573F
:101E3C00C75D06F8017D2F46BB420D46F4D9082B31
:101E4C000BD12368DF0708D5236961689942DEBF8F
:101E5C00302306F8013C06F1FF36921B22614B46FB
:101E6C0021464046CDF800A003AAFFF7DFFE013063
:101E7C004CD14FF0FF3004B0BDE8F087344884F803
:101E8C0045700E68236856F8045B1F060E6014D567
:101E9C00D90744BF43F0200323601DB9236823F006
:101EAC00200323601023AFE7236843F02003236053
:101EBC007823284884F84530E3E75E0648BFADB286
:101ECC00E6E71646BBE70B6826681D1D60690D60CA
:101EDC0035061B6801D5186002E07106FBD5188029
:101EEC00002316462361BAE70B681A1D0A601E68A8
:101EFC0000213046626800F021FB08B1801B606055
:101F0C0063682361002384F84330A8E732464946CE
:101F1C0040462369D0470130ABD023689B0713D4CC
:101F2C00E068039B9842B8BF1846A4E701233246E9
:101F3C0049464046D04701309BD00135E3680399B0
:101F4C005B1AAB42F2DCEBE7002504F11906F5E76E
:101F5C00892700089A27000838B504460846114618
:101F6C000022054D2A601A46FEF7C2FB431C02D123
:101F7C002B6803B1236038BD8C02002038B50C46A9
:101F8C000968054609B1FFF7F9FF21462846BDE867
:101F9C003840FFF791BC00002C4B70B51B68044611
:101FAC00834251D0436A43B1DB68002B4AD1636A48
:101FBC00196811B12046FFF77FFC616911B1204609
:101FCC00FFF77AFC616A11B12046FFF775FCA16B33
:101FDC0011B12046FFF770FCE16B11B12046FFF701
:101FEC006BFC216C11B12046FFF766FCE16D11B161
:101FFC002046FFF761FCA16D11B12046FFF75CFC98
:10200C00616B11B12046FFF757FCA369E3B1204681
:10201C00A36A9847A16CB9B12046BDE87040FFF7A0
:10202C00ADBF495941B90435636A802DD968F8D1DF
:10203C002046FFF741FCBAE70E682046FFF73CFC50
:10204C003146EFE70025EFE770BD00BF1C01002013
:10205C00F8B50E461446054618B183690BB9FFF75F
:10206C0059F9214B9C422BD16C68A369A360A389BD
:10207C001A072FD523696BB323692068F6B2C01AEF
:10208C0063693746834204DC21462846FFF7A8FBE8
:10209C0030BBA3680130013BA36023685A1C22604B
:1020AC001E706369834204D0A389DB0706D50A2E10
:1020BC0004D121462846FFF793FB88B93846F8BD72
:1020CC000A4B9C4201D1AC68CFE7094B9C4208BF3C
:1020DC00EC68CAE72146284600F014F80028CBD05B
:1020EC004FF0FF37EAE700BF3827000858270008F1
:1020FC0018270008024B0A4601461868FFF7A8BFCC
:10210C001C010020324B70B51D6806460C4625B1EB
:10211C00AB6913B92846FFF7FDF82E4B9C420FD143
:10212C006C68A389B4F90C2019072CD4DD0611D4E2
:10213C000923336042F040034FF0FF30A3813EE0AF
:10214C00254B9C4201D1AC68EBE7244B9C4208BF69
:10215C00EC68E6E7580712D5616B41B104F1440312
:10216C00994202D03046FFF7A7FB00236363A38993
:10217C0023F02403A3810023636023692360A389D4
:10218C0043F00803A38123694BB9A38903F420739B
:10219C00B3F5007F03D02146304600F08FF9A089BB
:1021AC00B4F90C2010F001030AD00023A36063697A
:1021BC005B42A361236943B910F08000BAD170BDB2
:1021CC00810758BF6369A360F4E70020F7E700BFFD
:1021DC001C01002038270008582700081827000881
:1021EC0093682DE9F74F06460C4690461BB9002024
:1021FC0003B0BDE8F08F8B89180750D50B69002B05
:10220C004DD0A389D8F8007013F002096CD113F0EB
:10221C00010300F09C804846CA46CB46BBF1000F38
:10222C0000F0038150B95A460A21504600F086F955
:10223C00002800F0FF800130A0EB0A09206821691A
:10224C00D9454A4628BF5A468842636940F2F58010
:10225C00A5681D44AA4240F3F08051462A4600F07E
:10226C0089F9236821462B4430462360FFF7B8FADE
:10227C00002867D1B9EB050940F0F78021463046BC
:10228C00FFF7AEFA00285DD1D8F80820AA44ABEBD2
:10229C00050B551BC8F80850002DBFD1A7E72146E8
:1022AC003046FFF72FFF0028ABD04FF0FF309FE7F1
:1022BC00D7E900B90837B9F1000FF9D0D1454B4631
:1022CC005A4628BF53463046216AA56AA8470028BB
:1022DC0038DDD8F808308344A9EB0009181AC8F87F
:1022EC0008000028E7D182E74FF0000BDFF880A14F
:1022FC00D946E0E7D7E9009A0837BAF1000FF9D0D0
:10230C00A389A2689905206863D5524536D813F481
:10231C00906F33D021696569A0EB010B05EB450586
:10232C0005EBD5750BF101026D105244954238BF87
:10233C0015465B053DD529463046FFF7CDF848B923
:10234C000C233360A38943F04003A381ADE7994686
:10235C009A46D2E75A462169019000F0FDF8A2890D
:10236C00019B22F4906242F08002A28152462361CA
:10237C0065615B44A5EB0B052360A560524528BF46
:10238C005246554649462068019200F0F3F8A3687E
:10239C00019A9B1AA36023681A442260D8F808009B
:1023AC00A944AAEB050A451BC8F80850002DA4D176
:1023BC001DE72A46304600F0F7F803460028D5D131
:1023CC0030462169FFF778FAA38923F08003A381B3
:1023DC00B6E72369834202D36169514515D9524549
:1023EC0028BF52461546494600F0C4F8A368226837
:1023FC005B1B2A44A3602260002BCFD121463046C0
:10240C00FFF7EEF90028C9D09CE76FF000439A451E
:10241C0038BF534693FBF1F3A56A4B434A4630460B
:10242C00216AA847051EB9DC8CE7D7E900AB002070
:10243C000837F3E60BF1010900E7934208DCA56AC3
:10244C0052463046216AA847051E3FF713AF79E77D
:10245C005146019200F08EF8019AA36815469B1A1A
:10246C00A36023681344236004E701200CE700BF3A
:10247C0000FCFF7F70B50E46B1F90E101446002912
:10248C001D4696B007DA00232B60B3891A0610D4C8
:10249C004FF480630EE06A4600F0ACF80028F2DBE3
:1024AC00019A02F47042A2F500535A425A412A6032
:1024BC00EEE740230020236016B070BD8B8973B506
:1024CC009D0706460C4607D504F14703236023619C
:1024DC000123636102B070BD6A4601ABFFF7CAFF0E
:1024EC00009905463046FEF7F7FF48B9B4F90C30B1
:1024FC009A05EFD423F0030343F00203A381E3E72F
:10250C000D4BB362A389206043F08003A381009B31
:10251C0020616361019B5BB13046B4F90E1000F091
:10252C007BF828B1A38923F0030343F00103A381B3
:10253C00A0890543A581CDE77D120008034610B59F
:10254C00C9B202449342184601D1002003E004783A
:10255C0001338C42F6D110BD0A44914200F1FF3395
:10256C0000D1704710B511F8014B914203F8014F9F
:10257C00F9D110BD884210B501EB020402D9844296
:10258C00234607D8431EA14208D011F8012B03F8AB
:10259C00012FF8E7014602448A4200D110BD13F81E
:1025AC00014D02F8014DF7E7F8B5074614460E4603
:1025BC0021B91146BDE8F840FEF78EBF22B9FFF7EE
:1025CC007BF925462846F8BD00F036F8A0420FD21C
:1025DC0021463846FEF780FF05460028F2D03146EA
:1025EC002246FFF7B9FF31463846FFF765F9E9E7B0
:1025FC003546E7E738B50023064D04460846114634
:10260C002B60FEF778F9431C02D12B6803B12360D1
:10261C0038BD00BF8C02002038B50023054D0446A0
:10262C0008462B60FEF727FB431C02D12B6803B135
:10263C00236038BD8C02002051F8043C181F002B7D
:10264C00BCBF0B58C018704700000000F8B500BFA5
:10265C00F8BC08BC9E467047F8B500BFF8BC08BC77
:04266C009E467047CF
:10267000200100203A73656D69686F7374696E6735
:102680002D6665617475726573003A74740000009C
:1026900051333120496E697469616C697A6174697A
:1026A0006F6E20637075206379636C65203A202516
:1026B000640A000051333120436163756C617469B1
:1026C0006F6E20637075206379636C65203A2025F6
:1026D000640A000046333220496E697469616C698E
:1026E0007A6174696F6E20637075206379636C65BD
:1026F000203A2025640A0000463332204361637586
:102700006C6174696F6E20637075206379636C65AA
:10271000203A2025640A00000000000000000000AC
:1027200000000000000000000000000000000000A9
:102730000000000000000000000000000000000099
:102740000000000000000000000000000000000089
:102750000000000000000000000000000000000079
:102760000000000000000000000000000000000069
:102770000000000000000000232D302B2000686CBA
:102780004C00656667454647003031323334353694
:1027900037383941424344454600303132333435CD
:0C27A000363738396162636465660000FA
:0827AC00A0D9FF7F010000002D
:0427B40031010008E7
:0427B8000D01000807
:1027BC00000000000000000000000000000000000D
:1027CC0000000000000000000000000000000000FD
:1027DC0000000000000000000000000000000000ED
:1027EC0000000000000000000000000000000000DD
:1027FC0000000000000000000000000000000000CD
:10280C0000000000000000000000000000000000BC
:10281C0000000000000000000000000000000000AC
:10282C00000000000000000000000000000000009C
:10283C00000000000000000000000000000000008C
:10284C00000000000000000000000000000000007C
:10285C00000000000000000000000000000000006C
:10286C00000000000000000000000000000000005C
:10287C00000000000000000000000000000000004C
:10288C00000000000000000000000000000000003C
:10289C00000000000000000000000000000000002C
:1028AC00000000000000000000000000000000001C
:1028BC00000000000000000000000000000000000C
:1028CC000000000014000020FF0000002001002088
:1028DC0000000000382700085827000818270008B7
:1028EC0000000000000000000000000000000000DC
:1028FC0000000000000000000000000000000000CC
:10290C0000000000000000000000000000000000BB
:10291C0000000000000000000000000000000000AB
:10292C00000000000000000000000000000000009B
:10293C00ADDEFECAFFFFFFFFFFFFFFFF0000000040
:10294C0000000000010203040607080900A24A0463
:040000050800117965
:00000001FF
