:020000040800F2
:1000000000C00020557A00089D7A00089D7A0008FB
:100010009D7A00089D7A00089D7A00080000000083
:100020000000000000000000000000009D7A0008B1
:100030009D7A0008000000009D7A0008B133000896
:100040009D7A00089D7A00089D7A00089D7A000834
:100050009D7A00089D7A00089D7A00089D7A000824
:100060009D7A00089D7A00089D7A00089D7A000814
:100070009D7A00089D7A00089D7A00089D7A000804
:100080009D7A00089D7A00089D7A00089D7A0008F4
:100090009D7A00089D7A00089D7A00089D7A0008E4
:1000A0009D7A00089D7A00089D7A00089D7A0008D4
:1000B0009D7A00083D3300089D7A00089D7A00086B
:1000C0009D7A00089D7A00089D7A00089D7A0008B4
:1000D0009D7A00089D7A00089D7A00089D7A0008A4
:1000E0009D7A00089D7A00089D7A000800000000B3
:1000F0000000000000000000000000000000000000
:0C01000000000000000000005FF808F1A3
:1001100010B5054C237833B9044B13B10448AFF341
:1001200000800123237010BD0002002000000000A9
:10013000F48600080C4B43B10C4810B50C49AFF3E2
:1001400000800C48036823B910BD0A48036833B91E
:100150007047094B002BF7D0BDE810401847064BFD
:10016000002BF5D0184700BF00000000F4860008FF
:1001700004020020FC01002000000000154B002BB1
:1001800008BF134B9D46A3F5803A00218B460F46CE
:100190001348144A121A00F093FF0F4B002B00D0A3
:1001A00098470E4B002B00D09847002000210400F8
:1001B0000D000D48002802D00C48AFF3008000F07D
:1001C0005BFF2000290003F055F900F041FF00BF5C
:1001D0000000080000000000000000000000000017
:1001E0000002002044020020000000000000000087
:1001F000034613F8012B002AFBD1181A0138704767
:1002000010F8012B11F8013B012A28BF9A42F7D0C0
:10021000D01A7047B489000800000020FC010020BB
:10022000000200204402002081F0004102E000BFF3
:1002300083F0004330B54FEA41044FEA430594EAA6
:10024000050F08BF90EA020F1FBF54EA000C55EAE1
:10025000020C7FEA645C7FEA655C00F0E2804FEAB2
:100260005454D4EB5555B8BF6D420CDD2C4480EA94
:10027000020281EA030382EA000083EA010180EAC4
:10028000020281EA0303362D88BF30BD11F0004F12
:100290004FEA01314FF4801C4CEA113102D0404248
:1002A00061EB410113F0004F4FEA03334CEA133383
:1002B00002D0524263EB430394EA050F00F0A7809B
:1002C000A4F10104D5F1200E0DDB02FA0EFC22FA96
:1002D00005F2801841F1000103FA0EF2801843FA8A
:1002E00005F359410EE0A5F120050EF1200E012A7B
:1002F00003FA0EFC28BF4CF0020C43FA05F3C018B9
:1003000051EBE37101F0004507D54FF0000EDCF131
:10031000000C7EEB00006EEB0101B1F5801F1BD3DA
:10032000B1F5001F0CD349085FEA30004FEA3C0CDE
:1003300004F101044FEA445212F5800F80F09A80D4
:10034000BCF1004F08BF5FEA500C50F1000041EBD8
:10035000045141EA050130BD5FEA4C0C404141EBDC
:10036000010111F4801FA4F10104E9D191F0000F03
:1003700004BF01460020B1FA81F308BF2033A3F186
:100380000B03B3F120020CDA0C3208DD02F1140C7D
:10039000C2F10C0201FA0CF021FA02F10CE002F1B8
:1003A0001402D8BFC2F1200C01FA02F120FA0CFCB1
:1003B000DCBF41EA0C019040E41AA2BF01EB0451FA
:1003C000294330BD6FEA04041F3C1CDA0C340EDCF8
:1003D00004F11404C4F1200220FA04F001FA02F33B
:1003E00040EA030021FA04F345EA030130BDC4F1F9
:1003F0000C04C4F1200220FA02F001FA04F340EAEE
:100400000300294630BD21FA04F0294630BD94F09E
:10041000000F83F4801306BF81F480110134013D85
:100420004EE77FEA645C18BF7FEA655C29D094EAF6
:10043000050F08BF90EA020F05D054EA000C04BF74
:100440001946104630BD91EA030F1EBF002100205F
:1004500030BD5FEA545C05D14000494128BF41F0FE
:10046000004130BD14F580043CBF01F5801130BD62
:1004700001F0004545F0FE4141F470014FF00000ED
:1004800030BD7FEA645C1ABF194610467FEA655C9E
:100490001CBF0B46024650EA013406BF52EA033540
:1004A00091EA030F41F4002130BD00BF90F0000F2E
:1004B00004BF0021704730B54FF4806404F132046A
:1004C0004FF000054FF0000150E700BF90F0000F23
:1004D00004BF0021704730B54FF4806404F132044A
:1004E00010F0004548BF40424FF000013EE700BF1A
:1004F00042004FEAE2014FEA31014FEA02701FBFAA
:1005000012F07F4393F07F4F81F06051704792F07B
:10051000000F14BF93F07F4F704730B54FF46074F5
:1005200001F0004521F0004120E700BF50EA010240
:1005300008BF704730B54FF000050AE050EA0102ED
:1005400008BF704730B511F0004502D5404261EB5D
:1005500041014FF4806404F132045FEA915C3FF49E
:10056000DCAE4FF003025FEADC0C18BF03325FEA37
:10057000DC0C18BF033202EBDC02C2F1200300FAEC
:1005800003FC20FA02F001FA03FE40EA0E0021FA11
:1005900002F11444C1E600BF70B54FF0FF0C4CF4FB
:1005A000E06C1CEA11541DBF1CEA135594EA0C0FB1
:1005B00095EA0C0F00F0DEF82C4481EA030621EAEC
:1005C0004C5123EA4C5350EA013518BF52EA033527
:1005D00041F4801143F4801338D0A0FB02CE4FF0D9
:1005E0000005E1FB02E506F00042E0FB03E54FF009
:1005F0000006E1FB03569CF0000F18BF4EF0010E01
:10060000A4F1FF04B6F5007F64F5407404D25FEAFC
:100610004E0E6D4146EB060642EAC62141EA5551AF
:100620004FEAC52040EA5E504FEACE2EB4F1FD0CF1
:1006300088BFBCF5E06F1ED8BEF1004F08BF5FEA6F
:10064000500E50F1000041EB045170BD06F0004621
:1006500046EA010140EA020081EA0301B4EB5C04CE
:10066000C2BFD4EB0C0541EA045170BD41F48011C6
:100670004FF0000E013C00F3AB8014F1360FDEBFEB
:10068000002001F0004170BDC4F10004203C35DAC7
:100690000C341BDC04F11404C4F1200500FA05F34A
:1006A00020FA04F001FA05F240EA020001F00042EB
:1006B00021F0004110EBD37021FA04F642EB060161
:1006C0005EEA430E08BF20EAD37070BDC4F10C048B
:1006D000C4F1200500FA04F320FA05F001FA04F24F
:1006E00040EA020001F0004110EBD37041F100013B
:1006F0005EEA430E08BF20EAD37070BDC4F1200546
:1007000000FA05F24EEA020E20FA04F301FA05F2AD
:1007100043EA020321FA04F001F0004121FA04F255
:1007200020EA020000EBD3705EEA430E08BF20EA25
:10073000D37070BD94F0000F0FD101F0004640005F
:1007400041EB010111F4801F08BF013CF7D041EAE1
:10075000060195F0000F18BF704703F000465200E5
:1007600043EB030313F4801F08BF013DF7D043EAB6
:100770000603704794EA0C0F0CEA135518BF95EA6C
:100780000C0F0CD050EA410618BF52EA4306D1D1F3
:1007900081EA030101F000414FF0000070BD50EA12
:1007A000410606BF1046194652EA430619D094EA9C
:1007B0000C0F02D150EA013613D195EA0C0F05D186
:1007C00052EA03361CBF104619460AD181EA0301DA
:1007D00001F0004141F0FE4141F470014FF0000092
:1007E00070BD41F0FE4141F4780170BD70B54FF02D
:1007F000FF0C4CF4E06C1CEA11541DBF1CEA1355AD
:1008000094EA0C0F95EA0C0F00F0A7F8A4EB05048E
:1008100081EA030E52EA03354FEA013100F0888085
:100820004FEA03334FF0805545EA131343EA12634E
:100830004FEA022245EA111545EA10654FEA002603
:100840000EF000419D4208BF964244F1FD0404F5BC
:10085000407402D25B084FEA3202B61A65EB030518
:100860005B084FEA32024FF480104FF4002CB6EBD5
:10087000020E75EB030E22BFB61A754640EA0C0055
:100880005B084FEA3202B6EB020E75EB030E22BF95
:10089000B61A754640EA5C005B084FEA3202B6EBD6
:1008A000020E75EB030E22BFB61A754640EA9C0095
:1008B0005B084FEA3202B6EB020E75EB030E22BF65
:1008C000B61A754640EADC0055EA060E18D04FEA23
:1008D000051545EA16754FEA06164FEAC30343EAC3
:1008E00052734FEAC2025FEA1C1CC0D111F4801F90
:1008F0000BD141EA00014FF000004FF0004CB6E789
:1009000011F4801F04BF01430020B4F1FD0C88BF27
:10091000BCF5E06F3FF6AFAEB5EB030C04BFB6EB32
:10092000020C5FEA500C50F1000041EB045170BD25
:100930000EF0004E4EEA113114EB5C04C2BFD4EB52
:100940000C0541EA045170BD41F480114FF0000ED6
:10095000013C90E645EA060E8DE60CEA135594EA52
:100960000C0F08BF95EA0C0F3FF43BAF94EA0C0F55
:100970000AD150EA01347FF434AF95EA0C0F7FF4CA
:1009800025AF104619462CE795EA0C0F06D152EA1E
:1009900003353FF4FDAE1046194622E750EA410602
:1009A00018BF52EA43067FF4C5AE50EA41047FF413
:1009B0000DAF52EA43057FF4EBAE12E74FF0FF3C78
:1009C00006E000BF4FF0010C02E000BF4FF0010C49
:1009D0004DF804CD4FEA410C7FEA6C5C4FEA430CC2
:1009E00018BF7FEA6C5C1BD001B050EA410C0CBF11
:1009F00052EA430C91EA030F02BF90EA020F002073
:100A0000704710F1000F91EA030F58BF994208BFD9
:100A100090422CBFD8176FEAE37040F00100704796
:100A20004FEA410C7FEA6C5C02D150EA013C07D1ED
:100A30004FEA430C7FEA6C5CD6D152EA033CD3D038
:100A40005DF8040B704700BF8446104662468C4632
:100A50001946634600E000BF01B5FFF7B7FF002865
:100A600048BF10F1000F01BD4DF808EDFFF7F4FF8E
:100A70000CBF012000205DF808FB00BF4DF808ED19
:100A8000FFF7EAFF34BF012000205DF808FB00BF3C
:100A90004DF808EDFFF7E0FF94BF012000205DF85E
:100AA00008FB00BF4DF808EDFFF7CEFF94BF012013
:100AB00000205DF808FB00BF4DF808EDFFF7C4FF0C
:100AC00034BF012000205DF808FB00BF4FEA410C55
:100AD0007FEA6C5C02D150EA013C0AD14FEA430C38
:100AE0007FEA6C5C02D152EA033C02D14FF0000075
:100AF00070474FF0010070474FEA410212F50012B3
:100B000015D211D56FF47873B3EB625212D94FEA54
:100B1000C12343F0004343EA505311F0004F23FA3E
:100B200002F018BF404270474FF00000704750EA93
:100B3000013005D111F0004008BF6FF00040704750
:100B40004FF00000704700BF80F0004002E000BF9F
:100B500081F0004142001FBF5FEA410392EA030FA8
:100B60007FEA226C7FEA236C6AD04FEA1262D2EBF2
:100B70001363C1BFD218414048404140B8BF5B42F7
:100B8000192B88BF704710F0004F40F4000020F090
:100B90007F4018BF404211F0004F41F4000121F0A6
:100BA0007F4118BF494292EA030F3FD0A2F10102F0
:100BB00041FA03FC10EB0C00C3F1200301FA03F12E
:100BC00000F0004302D5494260EB4000B0F5000F51
:100BD00013D3B0F1807F06D340084FEA310102F110
:100BE0000102FE2A51D2B1F1004F40EBC25008BFC2
:100BF00020F0010040EA03007047490040EB00008C
:100C000010F4000FA2F10102EDD1B0FA80FCACF1BA
:100C1000080CB2EB0C0200FA0CF0AABF00EBC250B9
:100C200052421843BCBFD0401843704792F0000FA7
:100C300081F4000106BF80F400000132013BB5E7FA
:100C40004FEA41037FEA226C18BF7FEA236C21D070
:100C500092EA030F04D092F0000F08BF08467047D5
:100C600090EA010F1CBF0020704712F07F4F04D1A3
:100C7000400028BF40F00040704712F100723CBFB6
:100C800000F50000704700F0004343F0FE4040F4E0
:100C9000000070477FEA226216BF08467FEA23639E
:100CA0000146420206BF5FEA412390EA010F40F489
:100CB000800070474FF0000304E000BF10F00043D5
:100CC00048BF40425FEA000C08BF704743F09643BC
:100CD00001464FF000001CE050EA010208BF7047D7
:100CE0004FF000030AE000BF50EA010208BF70475E
:100CF00011F0004302D5404261EB41015FEA010C73
:100D000002BF84460146002043F0B64308BFA3F16A
:100D10008053A3F50003BCFA8CF2083AA3EBC2534C
:100D200010DB01FA02FC634400FA02FCC2F120026B
:100D3000BCF1004F20FA02F243EB020008BF20F0A2
:100D40000100704702F1200201FA02FCC2F1200208
:100D500050EA4C0021FA02F243EB020008BF20EAFD
:100D6000DC7070474FF0FF0C1CEAD0521EBF1CEA2B
:100D7000D15392EA0C0F93EA0C0F6FD01A4480EA19
:100D8000010C400218BF5FEA41211ED04FF0006302
:100D900043EA501043EA5111A0FB01310CF000402E
:100DA000B1F5000F3EBF490041EAD3715B0040EA54
:100DB000010062F17F02FD2A1DD8B3F1004F40EB24
:100DC000C25008BF20F00100704790F0000F0CF0F7
:100DD000004C08BF49024CEA502040EA51207F3ABB
:100DE000C2BFD2F1FF0340EAC250704740F4000096
:100DF0004FF00003013A5DDC12F1190FDCBF00F087
:100E000000407047C2F10002410021FA02F1C2F134
:100E1000200200FA02FC5FEA310040F1000053EAD0
:100E20004C0308BF20EADC70704792F0000F00F01E
:100E3000004C02BF400010F4000F013AF9D040EA24
:100E40000C0093F0000F01F0004C02BF490011F4B8
:100E5000000F013BF9D041EA0C018FE70CEAD153B6
:100E600092EA0C0F18BF93EA0C0F0AD030F0004C36
:100E700018BF31F0004CD8D180EA010000F00040EA
:100E8000704790F0000F17BF90F0004F084691F0A8
:100E9000000F91F0004F14D092EA0C0F01D14202E2
:100EA0000FD193EA0C0F03D14B0218BF084608D1AB
:100EB00080EA010000F0004040F0FE4040F40000F5
:100EC000704740F0FE4040F4400070474FF0FF0C88
:100ED0001CEAD0521EBF1CEAD15392EA0C0F93EACF
:100EE0000C0F69D0A2EB030280EA010C49024FEA21
:100EF000402037D04FF0805343EA111143EA1013DA
:100F00000CF000408B4238BF5B0042F17D024FF491
:100F1000000C8B4224BF5B1A40EA0C00B3EB510F6C
:100F200024BFA3EB510340EA5C00B3EB910F24BF55
:100F3000A3EB910340EA9C00B3EBD10F24BFA3EBDA
:100F4000D10340EADC001B0118BF5FEA1C1CE0D1A2
:100F5000FD2A3FF650AF8B4240EBC25008BF20F055
:100F6000010070470CF0004C4CEA50207F32C2BFA9
:100F7000D2F1FF0340EAC250704740F400004FF046
:100F80000003013A37E792F0000F00F0004C02BF77
:100F9000400010F4000F013AF9D040EA0C0093F041
:100FA000000F01F0004C02BF490011F4000F013B9B
:100FB000F9D041EA0C0195E70CEAD15392EA0C0F03
:100FC00008D142027FF47DAF93EA0C0F7FF470AF3B
:100FD000084676E793EA0C0F04D14B023FF44CAF7E
:100FE00008466EE730F0004C18BF31F0004CCAD113
:100FF00030F000427FF45CAF31F000437FF43CAF4F
:101000005FE700BF4FEA4002B2F1FE4F0FD34FF04F
:101010009E03B3EB12620DD94FEA002343F0004365
:1010200010F0004F23FA02F018BF404270474FF013
:101030000000704712F1610F01D1420205D110F09A
:10104000004008BF6FF0004070474FF0000070474D
:1010500008B5074B044613B10021AFF30080054BE0
:101060001868836A03B19847204602F00BF900BF65
:10107000000000001087000870B500250C4E0D4CD4
:10108000A41BA410A54209D107F036FB00250A4E87
:101090000A4CA41BA410A54205D170BD56F82530FA
:1010A00098470135EEE756F8253098470135F2E7C5
:1010B000AC890008AC890008AC890008B089000838
:1010C00003460244934200D1704703F8011BF9E73D
:1010D000002B2DE9F0471E46BBBF03F100431E461F
:1010E00000232D2388B0149F129927F02007462F44
:1010F0001446109DDDF84CA00B7004D0452F00D194
:101100000135022300E0032307AA049206AA0392F2
:101110008DE828042246334600F0CAFC472F80465B
:1011200002D1119BDB0726D5462F08EB050911D10B
:1011300098F80030302B0AD1002200232046314697
:10114000FFF792FC18B9C5F10105CAF80050DAF8AA
:10115000003099440022002320463146FFF784FCEA
:1011600038B93022079B994505D9591C07911A7047
:10117000F8E7CDF81C904046079B159AA3EB0803AF
:10118000136008B0BDE8F0870346F7B5002903F8FF
:10119000022BB6BF2D222B2249420929427021DDA4
:1011A0000DF1070217460A2691FBF6F506FB15110D
:1011B000092D01F1300102F8011C02F1FF3429462A
:1011C00009DC3031023A04F8011CBA421C4604D34F
:1011D000201A03B0F0BD2246E6E712F8011B03F81F
:1011E000011BF2E730221C46114404F8022B59700F
:1011F000EEE700002DE9F04F91B00C461A9F9346A0
:101200001E46054601F02AFA036818460993FEF7C0
:10121000EFFF00230E933B680A90073323F0070388
:1012200003F1080294F81880D4F800A03A60D3E9DA
:101230000023C4E91223D4F84C90A76C29F0004392
:101240000B934FF0FF32A64B38460B99FFF73EFC4D
:10125000002840F0F7814FF0FF32A14B38460B9940
:10126000FFF716FC002840F0ED81002200233846ED
:101270004946FFF703FC10B12D2384F84330994B06
:10128000994FB8F1470F98BF1F4603234FF000094D
:1012900023612AF00403236000965B460FAA2146CF
:1012A000284600F0DFF9013040F09A804FF0FF301F
:1012B00011B0BDE8F08F62680EA8531C0DF1340E1A
:1012C0004AF4806341D106226260002123600193C9
:1012D00063680DF133020590029200933A464B4643
:1012E0000691CDF81080CDF80CE02846FFF7F0FE0F
:1012F00008F0DF03472B074609D10D9BD81C02DB02
:101300006268934259DDA8F102085FFA88F8B8F1E3
:10131000650F0D9936D80139424604F150000D9100
:10132000FFF732FF0E9A81468318012A236102DCFF
:101330002268D10701D5013323619DF83330002B9A
:10134000AAD02D2384F84330A6E7B8F1670F02D066
:10135000B8F1470FB9D19AB1002106910DF13301CF
:101360008DE80C00236005903A46CDF81080CDF84A
:101370000CE002914B462846FFF7AAFE0746BCE761
:101380000122A1E7B8F1660F19D1002963680CDDCD
:10139000216113B92268D20702D501330B442361BE
:1013A0000D9B4FF00009A365C7E713B92268D0076A
:1013B00001D50233F3E70123F1E74FF067080D9BF6
:1013C0000E9A934205DB22682361D107E8D50133E9
:1013D000E5E7002BCCBF0123C3F102031344DEE792
:1013E00023685A0507D423693A4659462846B04728
:1013F00001302AD15AE7B8F1650F40F2DC80D4E918
:10140000120100220023FFF72FFB002839D001230F
:10141000364A59462846B04701303FF447AF0E9B45
:101420000D9A9A4202DB2368D8070ED50A9B099AC7
:1014300059462846B04701303FF438AF002704F141
:101440001A080E9B013B9F4211DB23689F0708D5BA
:10145000002704F11908E3680F9A9B1A9F42C0F213
:10146000E780E0680F9B9842B8BF184620E7012349
:10147000424659462846B04701303FF417AF01377E
:10148000DFE70D9B002B33DC0123184A5946284621
:10149000B04701303FF40AAF0D9B23B90E9B13B93F
:1014A0002368D907D1D50A9B099A59462846B047DF
:1014B00001303FF4FBAE4FF0000804F11A090D9B18
:1014C0005B42984501DB0E9B8EE701234A46594655
:1014D0002846B04701303FF4E9AE08F10108EEE7D5
:1014E000FFFFEF7F14870008188700082487000893
:1014F0000E9AA36D9A42A8BF1A46002A904636DC7F
:101500004FF0000A04F11A0328EAE8780B93D4F8A4
:101510005890A9EB08039A4531DB0E9B0D9A9A422D
:1015200038DB2368DA0735D40E9B0D99A3EB09024B
:10153000A3EB01089045A8BF9046B8F1000F31DC3D
:10154000002728EAE87804F11A090D9A0E9B9B1AE5
:10155000A3EB08039F42BFF678AF01234A465946E2
:101560002846B04701303FF4A1AE0137EDE71346FE
:1015700059463A462846B0470130C1D196E6012384
:101580000B9A59462846B04701303FF48FAE0AF116
:10159000010ABCE70A9B099A59462846B047013020
:1015A000C2D183E6434607EB090259462846B047B5
:1015B0000130C5D17AE60E9A012A01DCDB0734D569
:1015C00001233A4659462846B04701303FF46EAEF3
:1015D0000A9B099A59462846B04701303FF466AE47
:1015E000D4E9120100220023FFF73EFA50B1002790
:1015F00004F11A080E9B013B9F420CDB4B4604F1A1
:101600005002F2E60E9B7A1C013B59462846B04731
:101610000130F3D14AE60123424659462846B047F5
:1016200001303FF443AE0137E4E701233A46ECE7EB
:101630000123424659462846B04701303FF436AEB2
:10164000013708E73A464B4638464946FFF73EFA27
:1016500000283FF430AE014B014F12E61C87000812
:10166000208700082DE9F04791461F468A680B69DC
:1016700006469342B8BF1346C9F8003091F843209C
:101680000C46DDF8208012B10133C9F80030236820
:10169000990642BFD9F800300233C9F800302568F6
:1016A00015F0060507D104F1190AE368D9F80020FE
:1016B0009B1A9D422ADB94F843302268003318BFFE
:1016C000012392062FD404F1430239463046C04725
:1016D000013022D02368E56803F00603042B18BF0D
:1016E0000025D9F800204FF0000908BFAD1AA36803
:1016F000226908BF25EAE5759342C4BF9B1AED181D
:101700001A344D451BD10020BDE8F0870123524615
:1017100039463046C047013003D14FF0FF30BDE8B5
:10172000F0870135C1E73020E11881F843005A1CE9
:1017300094F845102244023382F84310C3E7012392
:10174000224639463046C0470130E6D009F101094A
:10175000D7E700002DE9F04317460A7E85B06E2AD0
:10176000984606460C460C9B01F1430E00F0BC80E7
:101770001AD8632A2ED00AD8002A00F0C880582A26
:1017800000F08A8004F1420584F842202AE0642AAD
:1017900001D0692AF6D121681A6811F0800F23D090
:1017A000111D1960136827E0732A00F0B48008D86F
:1017B0006F2A2AD0702AE5D10A6842F020020A6016
:1017C00003E0752A21D0782ADCD178226F4984F889
:1017D000452064E01A6801F14205111D1960136883
:1017E00084F842300123A3E011F0400F02F104011C
:1017F0001960D7D0B2F90030002B03DA2D225B42FA
:1018000084F8432062490A2217E02068196810F022
:10181000800F03D0081D18600B6806E010F0400F21
:1018200001F104001860F7D00B886F2A14BF0A2258
:1018300008225749002084F843006568002DA56000
:10184000C0F29C80206820F004002060002B3FD173
:10185000002D40F095807546082A0BD12368DA07E1
:1018600008D5236962689A42DEBF302305F8013C3F
:1018700005F1FF35AEEB05032361CDF800803B4653
:1018800003AA21463046FFF7EDFE013055D14FF057
:10189000FF3005B0BDE8F08381F845203C4922685F
:1018A000186812F0800F00F104051D6001D0036874
:1018B00002E05506FBD50388D00744BF42F0200262
:1018C00022601BB9226822F0200222601022B1E7B8
:1018D0007546B3FBF2F002FB1033CB5C05F8013D1B
:1018E00003460028F5D1B7E708681A6810F0800FA2
:1018F000496904D0101D18601368196007E010F0E2
:10190000400F02F1040018601368F6D0198000231C
:1019100075462361B1E71A68111D19601568002129
:101920006268284600F0C6FE08B1401B606063682C
:101930002361002384F843309FE723692A46394610
:101940003046C0470130A2D023689B0707D5002549
:1019500004F11909E368039A9B1A9D4205DBE068CC
:10196000039B9842B8BF184693E701234A4639467D
:101970003046C04701308AD00135EBE7002BA7D1B4
:101980000B7804F1420584F8423065E73787000898
:10199000268700082DE9F74F03690C6980469C42B1
:1019A00000F38280013C01F1140700F1140657F89E
:1019B000245056F824000135B0FBF5F54FEA840EAB
:1019C00006EB0E0307EB0E0901938DB34FF0000AEF
:1019D0003846B446D34650F8042B93B205FB03A314
:1019E000120C4FEA134A05FB02A29BB2ABEB0303B6
:1019F000BCF800B04FEA124A5B441FFA82FBDCF8E5
:101A000000208145CBEB124202EB23429BB243EA1A
:101A100002434FEA224B4CF8043BDCD256F80E301E
:101A200033B9019B043B9E421A4631D3C8F810409B
:101A3000404601F09EF8002826DB30464FF0000EAD
:101A4000013557F8041BD0F800C08BB2AEEB03038E
:101A50001FFA8CF213440A0CC2EB1C4202EB234225
:101A60009BB243EA0243B9454FEA224E40F8043B99
:101A7000E7D256F8242006EB84032AB9043B9E42A1
:101A80001A460BD3C8F81040284603B0BDE8F08FC3
:101A90001268043B002AC9D1013CC4E71268043B28
:101AA000002AEFD1013CEAE70020EEE70000000049
:101AB0002DE9F04F466A95B00446219DCDE90223F9
:101AC0003EB9102000F0E6FD606246608660066068
:101AD000C660636A196851B15A68012393404A602D
:101AE0008B60204600F033FE0022636A1A60039B7D
:101AF000002BB7BF012300232B60039BAEBF2B60DD
:101B000023F000430393DDF80C90AB4B33EA090359
:101B10001BD142F20F73209A1360029B23B9C9F3C1
:101B20001300002800F08385229B53B9A34B21E0CA
:101B3000A34B06930833229A1360069815B0BDE8AC
:101B4000F08F9E4B06930333F5E7DDE90267002231
:101B5000002330463946FEF787FF804660B10123F7
:101B6000209A1360229B002B00F05E85954B229AF1
:101B70001360013B0693E0E712AB019313AB0093B4
:101B800032463B46204601F0E3F8C9F30A55824647
:101B9000002D7DD03046C7F3130343F07F5141F44D
:101BA0004011A5F2FF35CDF840800022864BFEF7AC
:101BB0003FFB7BA3D3E90023FEF7EEFC7AA3D3E936
:101BC0000023FEF737FB064628460F46FEF77EFC4D
:101BD00077A3D3E90023FEF7DFFC02460B4630462D
:101BE0003946FEF727FB06460F46FEF785FF002223
:101BF0008346002330463946FEF740FF58B1584629
:101C0000FEF764FC02460B4630463946FEF72CFFD1
:101C100008B90BF1FF3BBBF1160F58D8DDE90223E1
:101C20006A4901EBCB01D1E90001FEF745FF00282D
:101C30004FD000230BF1FF3B0D93129B5D1B6B1EDE
:101C4000079343BF0023C5F1010807934FF0000835
:101C5000BBF1000F3FDB079BCDF830B05B4407932F
:101C6000002308931E9B092B00F2B480052BC4BFF0
:101C7000043B1E931E9BC8BF0026A3F10203D8BFDE
:101C80000126032B00F2B280DFE803F084862D7872
:101C9000139B129D1D4405F23243202B11DD029A45
:101CA00005F21240C3F1400322FA00F009FA03F3EF
:101CB0001843FEF7FBFB0123A1F1F871013D1093DE
:101CC00073E7C3F12000029B03FA00F0F1E7012360
:101CD000B2E70D90B1E7CBF1000308930023A8EB26
:101CE0000B080C93BEE7012309931F9B002B40F3C5
:101CF00080809946049300220421656A6A6001F19C
:101D000014029A427AD96968204600F0ECFC636AB2
:101D100028601B68B9F10E0F069300F2F080002EC8
:101D200000F0ED80DDE90223BBF1000FCDE90E23C9
:101D300079DD264A0BF00F034FEA2B1602EBC303A3
:101D4000F006D3E90023CDE90A235CD5DDE90E01D5
:101D50001F4B0325D3E90823FEF748FDCDE9020117
:101D600006F00F061A4F002E4FD1DDE90A23DDE9F8
:101D70000201FEF73BFDCDE902016EE0012309936C
:101D80001F9B5B4403F1010904934B46012BB8BF31
:101D90000123B0E70023A7E70023F0E7AFF30080BB
:101DA00061436F63A787D23FB3C8608B288AC63F61
:101DB000FB799F501344D33F0000F07F5187000808
:101DC00048870008258700080000F83F8087000842
:101DD000588700080126002309961E934FF0FF3311
:101DE00000220493994612231F9284E7012309934A
:101DF000F4E70123049399461A46F5E76A68490017
:101E000001326A607BE70225ACE7F10708D5DDE91E
:101E10000A01D7E90023FEF7BFFBCDE90A0101352E
:101E2000761008379FE700F0A580DDE90E01CBF1C1
:101E30000006A24B06F00F0203EBC203D3E9002316
:101E4000FEF7AAFB02250023CDE902019C4F3611C3
:101E5000002E40F08480002B8DD10D9B002B00F0D4
:101E60008B80DDE90223CDE90A23DDE90A010022A6
:101E7000944BFEF703FE00287ED0B9F1000F7BD013
:101E8000049B002B37DDDDE90A0100228E4BFEF7B3
:101E900083FBCDE90201049E0BF1FF370135284693
:101EA000FEF714FBDDE90223FEF776FB874B0022E9
:101EB000FEF7C0F9CDE90A010B9BA3F150750B9514
:101EC000002E5CD1DDE902010022814BFEF7B0F962
:101ED0000A9A2B46CDE90201FEF7EEFD002840F0FC
:101EE000F782DDE902010A9A05F10043FEF7C6FD1B
:101EF000002840F0EB82DDE90E23CDE90223139B9D
:101F0000002BC0F25081BBF10E0F00F34C816B4BE4
:101F100003EBCB03D3E90023CDE904231F9B002B64
:101F200080F2DA80B9F1000F00F3D68040F0CD8264
:101F3000DDE904010022664BFEF72EFBDDE90223FA
:101F4000FEF7B0FD4E464F46002840F0A482069BA7
:101F5000069A5D1C31230BF1010B13709FE2F2070F
:101F600005D5D7E90023FEF717FB012301357610CD
:101F700008376DE7022570E75F464E468FE7069A01
:101F80004E4B32441192099A711E002A48D003EB3D
:101F9000C103D3E9002300204E49FEF727FCDDE909
:101FA0000A23FEF745F9CDE90A01069DDDE90201A4
:101FB000FEF7A2FD0646FEF789FA02460B46DDE96A
:101FC0000201FEF735F9DDE90A23303605F8016B29
:101FD000CDE90201FEF752FD002864D1DDE90223BC
:101FE00000203849FEF724F9DDE90A23FEF746FD13
:101FF000002840F0B980119B9D423FF47CAFDDE9A1
:102000000A010022304BFEF7C7FA0022CDE90A018F
:10201000DDE902012C4BFEF7BFFACDE90201C5E76D
:1020200003EBC101D1E90001DDE90A23FEF7B4FAAF
:10203000CDE90A01069DDDE90201FEF75DFD0646D8
:10204000FEF744FA02460B46DDE90201FEF7F0F81E
:102050003036119B05F8016BAB42CDE902014FF020
:10206000000224D11B4BDDE90A01FEF7E3F802462A
:102070000B46DDE90201FEF71FFD002874D1DDE902
:102080000A2300201349FEF7D3F802460B46DDE988
:102090000201FEF7F3FC00283FF42DAF15F8013CD8
:1020A0006A1E302B01D0BB464DE01546F6E7064BC5
:1020B000FEF772FACDE90201BDE700BF8087000894
:1020C000588700080000F03F0000244000001C403A
:1020D000000014400000E03F069DDDE90267DDE9F5
:1020E000042330463946FEF781FBFEF705FD8046A6
:1020F000FEF7ECF9DDE90423FEF74EFA02460B4643
:1021000030463946FEF794F808F1300605F8016BC1
:10211000069E0246AE1BB1450B4637D1FEF78AF844
:1021200006460F4602460B46DDE90401FEF7A6FC13
:10213000C8B9DDE9040132463B46FEF795FC10B113
:1021400018F0010F0FD15146204600F000FB00238C
:10215000209A2B700BF101031360229B002B3FF49C
:10216000ECAC1D60E9E45F4615F8012C6B1E392AC2
:1021700006D1069A9A4207D13023137013460137CD
:102180001A7801321A708EE71D46EDE70022B54B32
:10219000FEF702FA0022002306460F46FEF764FC13
:1021A00000289CD0CFE7099A002A00F029811E9AC6
:1021B000012A00F30E81109A002A00F0068103F232
:1021C00033434546089E079A01211A442046984405
:1021D000079200F09AFB0746002D0BDD079B002BB2
:1021E00008DDAB42A8BF2B46079AA8EB0308ED1AFF
:1021F000D31A0793089BFBB1099B002B00F00481C5
:10220000002E11DD39463246204600F013FC5246BE
:1022100001460746204600F081FB51460A902046C1
:1022200000F095FA0A9B9A46089B9A1B04D05146E7
:10223000204600F0FFFB82460121204600F065FBAE
:102240000C9B0646002B40F3E1801A4601462046CF
:1022500000F0F0FB1E9B0646012B40F3DA800023C2
:102260000893336906EB8303186900F000FBC0F1A3
:102270002000079B184410F01F0000F0F080C0F110
:102280002003042B40F3E280079BC0F11C00804434
:10229000054403440793B8F1000F05DD514642465B
:1022A000204600F015FC8246079B002B05DD3146D9
:1022B0001A46204600F00CFC06460D9B002B00F051
:1022C000D3803146504600F054FC002880F2CC8088
:1022D000002351460A22204600F050FA099B0BF1D8
:1022E000FF3B8246002B00F0A981002339460A22D9
:1022F000204600F043FA049B0746002B03DC1E9B9C
:10230000022B00F3B980002D05DD39462A46204610
:1023100000F0DEFB0746089B002B00F01081796877
:10232000204600F0E0F905463A6907F10C01023257
:1023300092000C3000F0CCF901222946204600F032
:10234000C7FB07970746029BDDF8188003F00103DF
:10235000089331465046FFF71DFB0799054600F1EB
:102360003009504600F005FC3A46029031462046BE
:1023700000F019FCC3680246002B40F0E2800146E1
:102380000990504600F0F5FB0346099A1146204695
:10239000099300F0DCF9099B002B40F0D4801E9AD1
:1023A000002A40F0D080089A002A40F0CC80B9F191
:1023B000390F00F0E880029B002B01DD05F13109A7
:1023C00008F1010588F800906BE0129BC3F1360319
:1023D000F7E6089B09F1FF36B342B7BF089B9E1B87
:1023E000F21A0C9BBFBF08969B180C930026B9F1FC
:1023F000000FB9BFA8EB0905002345464B46E2E6AE
:10240000089E4546099FE7E6089A10E71E9B012BA8
:1024100018DC029BB3B9039BC3F31303A3B9039B5B
:1024200023F000431B0D1B052BB1079B08F101088E
:1024300001330793012308930C9B002B7FF411AF0A
:10244000012016E70023F6E7029BF4E73FF423AFF1
:10245000079A1C331A4498441D4413461AE703464E
:10246000F6E700BF00002440B9F1000F33DC1E9BEB
:10247000022B30DDCDF81090049B63B93146052264
:10248000204600F07BF901460646504600F071FBFD
:1024900000283FF75CAD1F9B069D6FEA030B0023EE
:1024A00007933146204600F052F9002F3FF44BAE1F
:1024B000079B2BB1BB4203D01946204600F047F9D9
:1024C0003946204600F043F93DE600263746E2E76C
:1024D000BB4637463BE5099BCDF81090002B7FF4B7
:1024E00012AF069D31465046FFF754FA069B00F1A5
:1024F000300905F8019B049AEB1A9A4200F3818097
:10250000069B012AACBF9B18013398460023079312
:1025100051460122204600F0DBFA3146824600F0A7
:1025200028FB002834DC02D119F0010F30D14546D8
:1025300015F8013C6A1E302BB3D11546F8E7384632
:10254000FFE6012322E7029A002A04DB28D11E9A23
:1025500032BB089A22BB002B7FF732AF51460122D3
:10256000204600F0B5FA3146824600F002FB002812
:1025700005DC7FF425AF19F0010F3FF421AFB9F16D
:10258000390F7FF41BAF392308F1010808F8013C2B
:10259000454615F8013C6A1E392B3AD001333FE01D
:1025A000002B08F1010505DDB9F1390FEBD009F178
:1025B000010907E7069B049AEB1A9342A84605F81F
:1025C000019CA5D0514600230A22204600F0D6F8EF
:1025D000079B8246BB424FF00A024FF00003079967
:1025E000204604D100F0CAF807900746B1E600F093
:1025F000C5F8002307900A223946204600F0BEF8AD
:10260000F3E7514600230A22204600F0B7F882463D
:1026100068E7069B934205D13123069A0BF1010B23
:1026200013703EE71546B4E7094BFFF7A3BA229BA8
:10263000002B7FF47DAA074BFFF79CBA049B002B6D
:102640003FF74FAF1E9B022B7FF74BAF14E700BF46
:102650002487000848870008F0307047044B1B6847
:10266000186A044B002808BF1846F030704700BFB6
:102670000400002068000020044B1B68186A044B0B
:10268000002808BF1846F030704700BF0400002043
:1026900068000020024B0146186800F083BC00BFB0
:1026A00004000020024B0146186800F02FBC00BF58
:1026B0000400002010B5C9B202449042034601D183
:1026C000002010BD1C7801308C42F6D1184610BD98
:1026D00010B5431E0A44914200D110BD11F8014BC0
:1026E00003F8014FF7E770B5456A04460E463DB959
:1026F0001020FFF7CFFF6062456085600560C56010
:10270000656AEB6883B1636ADB6853F82600B8B981
:10271000012101FA06F56A1D9200204600F0E7FB50
:1027200060B1466085600EE021220421204600F061
:10273000DEFB636AE860DB68002BE4D1002070BD3B
:10274000026843F8262000230361C36070BD70B5A2
:10275000446A06460D463CB91020FFF79BFF7062A5
:10276000446084600460C4603DB1736A6A68DB6879
:1027700053F82210296043F8225070BD2DE9F04132
:102780001F4606460C4600230D6901F1140EDEF8C3
:102790000000013381B202FB0171000C0F0C02FB3F
:1027A000007089B201EB00419D424FEA10474EF89C
:1027B000041BECDCD7B1A3689D4212DB6168304694
:1027C0000131FFF790FF8046226904F10C010232CB
:1027D00092000C30FFF77CFF21463046FFF7B7FF31
:1027E000444604EB850301355F6125612046BDE861
:1027F000F0812DE9F843154609221F4608330C469F
:1028000093FBF2F30646012200219A4220DB304678
:10281000FFF769FF089B092D43614FF00103036136
:1028200019DD04F10909C8462C4418F8013B01469A
:10283000303B0A223046FFF7A1FFA045F5D1A5F1B4
:1028400008044C442D1B6319BB4207DBBDE8F88329
:1028500052000131D9E70A340925F3E714F8013BA6
:102860000146303B0A223046FFF788FFEBE7020CB7
:1028700012040346B2B90304102013F07F4F04BFC3
:102880001B02083013F0704F04BF1B01043013F01B
:10289000404F04BF9B000230002B06DB5B0003D5DA
:1028A000013070470020E8E72020704703680146A8
:1028B00013F007020BD0DA0723D4980749BF5B084F
:1028C0009B0801200B605CBF0B600220704798B230
:1028D000A8B910201B0C13F0FF0F04BF1B0A08300F
:1028E0001A0704BF1B0904309A0704BF9B08023073
:1028F000DA0702D45B0806D001300B60704710463F
:10290000E9E7002070472020704710B50C460121F0
:10291000FFF7E9FE01224461026110BD2DE9F74F86
:1029200014460A69236989469A42BEBF0B46A146EE
:102930001C46D9F81070D4F810A0D9F80830D9F88E
:10294000041007EB0A069E42C8BF0131FFF7CBFE19
:1029500000F114052B46002205EB8608434516D3EB
:1029600004F1140209F1140102EB8A0301EB870759
:102970000193019C134694420CD8002E03DD58F8B5
:10298000043D002B54D0066103B0BDE8F08F43F83E
:10299000042BE3E7B3F800A00432BAF1000F20D013
:1029A000AE4689464FF0000C59F8044BBEF800B013
:1029B000A3B20AFB03B34FEA144BDEF800406344B2
:1029C0004FEA144C0AFB0BC404EB13449BB243EADA
:1029D00004434F454FEA144C4EF8043BE4D8CEF87C
:1029E00000C032F8029CB9F1000F1FD0AE468C46F1
:1029F0004FF0000A2B68BCF80040BEF802B09BB252
:102A000009FB04B4A24443EA0A434EF8043B5CF8D1
:102A1000043BBEF800401B0C09FB0343674503EB76
:102A20001A434FEA134AE6D8CEF800300435A0E73F
:102A3000013EA2E72DE9F843154612F003020646CF
:102A40000F4607D0214C013A002354F82220FFF70B
:102A500095FE0746AD1035D0746A3CB91020FFF7DB
:102A600019FE7062446084600460C460D6F82480FB
:102A7000D8F808404CB940F271213046FFF745FFC5
:102A800000230446C8F8080003604FF00008EB0775
:102A90000AD5394622463046FFF740FF814639467F
:102AA0003046FFF754FE4F466D100BD0206838B902
:102AB000224621463046FFF731FF2060C0F80080F3
:102AC0000446E4E73846BDE8F88300BF7088000894
:102AD0002DE9F0470C460746164623694FEA621A6D
:102AE0000AEB03094968A36809F10105AB4231DB30
:102AF0003846FFF7F8FD00228046114600F1140326
:102B000052452ADB20692AEAEA7A04F1140116F018
:102B10001F0203EB8A0301EB800E22D00020C2F1DA
:102B2000200C0E689640304343F8040B51F8040B18
:102B30008E4520FA0CF0F4D8186008B109F10205AE
:102B4000013D3846C8F810502146FFF700FE4046C8
:102B5000BDE8F08701315B00C8E743F8221001327D
:102B6000CEE7043B51F8042B8E4543F8042FF9D8E7
:102B7000E6E703690A6930B59B1A0CD1920014305C
:102B800014318418114454F8045D51F8042D954211
:102B900003D005D30123184630BDA042F3D3FAE792
:102BA0004FF0FF33F7E72DE9F0470D460746114692
:102BB00028461446FFF7DDFF061E08D13146384689
:102BC000FFF791FD012346610361BDE8F087A4BFD3
:102BD00023462C4638466168A6BF1D4600260126BE
:102BE000FFF781FD4FF0000CC6602B69266904F1E8
:102BF000140205F1140902EB860709EB830800F1C2
:102C0000140152F804AB59F8045B1FFA8AF36344C9
:102C1000ACB21B1B2C0CC4EB1A4404EB23449BB238
:102C20004FEA244CC84543EA0444964641F8044B15
:102C3000E7D8BE4505D351F8043D8BB10661BDE828
:102C4000F0875EF8044BA2B26244131403EB144302
:102C500092B242EA03424FEA234C41F8042BE8E7E0
:102C6000013EE8E7104B0B40A3F15073002B02DD4F
:102C70000020194670475B421B15132B4FF00000D4
:102C80004FF0000104DC4FF4002242FA03F17047D8
:102C90000122143B1E2BCEBF1346C3F11F0302FAC1
:102CA00003F31846704700BF0000F07F2DE9F8439A
:102CB000076900F1140909EB870757F8046CA7F1BD
:102CC00004083046FFF7D3FDC0F120030A280B604B
:102CD0001E4917DCC14528BF0022C0F10B0E26FAA1
:102CE0000EF338BF57F8082C43EA010500F115032D
:102CF00006FA03F322FA0EF243EA020420462946BA
:102D0000BDE8F883C1453ABFA7F1080857F8082C79
:102D10000022B0F10B0315D09E40C3F1200746F00E
:102D20007F5622FA07F1C84546F4401646EA0105E7
:102D300094BF002158F8041C02FA03F0F94040EA5D
:102D40000104DBE746EA01051446D7E70000F03F3F
:102D50002DE9F3411C4601219046089E099DFFF78D
:102D6000C2FCC4F31302C4F30A54074634BB0192F5
:102D7000B8F1000F27D002A840F8088DFFF796FDA4
:102D80000099F0B1019AC0F1200302FA03F30B435A
:102D9000C2407B610192019B002B14BF02210121E3
:102DA000BB613961C4B1A4F2334404443460C0F15E
:102DB00035002860384602B0BDE8F08142F4801248
:102DC000D5E77961E7E701A8FFF770FD0121019BD5
:102DD00039617B612030E5E7A0F2324007EB8103E7
:102DE00030601869FFF743FDC0EB4110E1E72DE9C2
:102DF0007343884669468146FFF758FF0D460446EF
:102E000001A94046FFF752FFD9F81030D8F810203A
:102E1000009E9A1A019BF31A03EB4213002BD6BFB4
:102E2000C3EB033305EB035501EB035102460B469D
:102E300020462946FDF7DAFC02B0BDE870830000A9
:102E40001728D0B5044605DC084B03EBC004D4E9D1
:102E50000001D0BD002000260549064F32463B4602
:102E6000FDF79AFB013CF9D1D0BD00BF8087000877
:102E70000000F03F00002440013910B549111469E9
:102E8000013102F1140300EB810103EB8404A3423E
:102E9000024603D300238A4205D310BD53F8042B06
:102EA00040F8042BF3E742F8043BF4E700F1140286
:102EB00000694B11984210B511DB0ADD11F01F01BA
:102EC00007D052F8234024FA01F000FA01F18C42B5
:102ED0000BD102EB8303934203D8002010BD0346BD
:102EE000F7E753F8041D0029F5D0012010BD38B5CF
:102EF00002FB01F4214600F055F8054618B12246C0
:102F00000021FEF7DDF8284638BD000038B505463B
:102F1000002943D051F8043C0C1F002BB8BFE41823
:102F200000F016F91E4A1368104633B96360146046
:102F30002846BDE8384000F00CB9A3420BD92168FF
:102F40006218934201BF1A685B685218226063607E
:102F50000460EDE713465A680AB1A242FAD919682B
:102F60005818A0420BD120680144581882421960B9
:102F7000DED110685268014419605A60D8E702D95E
:102F80000C232B60D4E7206821188A4201BF116806
:102F900052680918216062605C60C9E738BD00BFF3
:102FA0001C02002070B5CD1C25F0030508350C2D42
:102FB00038BF0C25002D064601DBA94203D90C239E
:102FC0003360002070BD00F0C3F8234A1468214626
:102FD00091B9224C23681BB9304600F041F82060BB
:102FE0002946304600F03CF8431C26D10C233046DD
:102FF000336000F0AEF8E4E70B685B1B1AD40B2BD0
:103000000FD90B60CC18CD50304600F0A2F804F177
:103010000B00231D20F00700C31A1BD05A42E250B8
:1030200070BD8C420BBF63684B681360636018BF50
:103030000C46E9E70C464968CAE7C41C24F00304BF
:10304000A04205D0211A304600F00AF80130CDD058
:103050002560D9E770BD00BF1C02002020020020BF
:1030600038B50023054C05460846236000F0FCF8FF
:10307000431C02D1236803B12B6038BD40020020FD
:1030800010B5144672B109491046FDF7B9F848B1B8
:1030900007492046FDF7B4F820B106492046FDF760
:1030A000AFF808B9024810BD002010BD7E880008A6
:1030B0007C88000895890008044B054A1B681B6A38
:1030C000002B08BF134693F8280170470400002026
:1030D00068000020D0F8EC0070470000044B054A5F
:1030E0001B681B6A002B08BF1346D3F8EC0070471F
:1030F0000400002068000020024B0A4601461868C0
:10310000FFF7BEBF0400002030B4064C064D246813
:10311000246A002C08BF2C46D4F8E440A44630BCF6
:10312000604700BF040000206800002082B001B9A1
:1031300001A942B14BB113780B601278101C18BF73
:10314000012002B070471046FBE76FF00100F8E77E
:103150007047704738B50C460968054609B1FFF756
:10316000F9FF21462846BDE83840FFF7CFBE0000F2
:103170002C4B70B51B680446834251D0436AABB1F7
:10318000DB686BB10025636ADB685959002941D1BE
:103190000435802DF7D1636A2046D968FFF7B6FE63
:1031A000636A196811B12046FFF7B0FE616911B179
:1031B0002046FFF7ABFE616A11B12046FFF7A6FE7D
:1031C000A16B11B12046FFF7A1FEE16B11B12046C2
:1031D000FFF79CFE216C11B12046FFF797FEE16DD1
:1031E00011B12046FFF792FEA16D11B12046FFF705
:1031F0008DFE616B11B12046FFF788FEA3697BB19C
:10320000A36A20469847A16C51B12046BDE87040A2
:10321000FFF7A0BF0E682046FFF778FE3146B5E7FE
:1032200070BD00BF0400002030B4064C064D246879
:10323000246A002C08BF2C46D4F8E040A44630BCD9
:10324000604700BF040000206800002049B1FF2A49
:103250008BBF8A230A700360012088BF4FF0FF30C4
:103260007047084670470000044A05491368002B60
:1032700008BF0B461844106018467047280200200B
:1032800048020020FEE700BF70B588B0012104208D
:1032900001F03AFEC023ADF8003004268DF803603B
:1032A0006946244803F0BAFF0121022001F03AFEEA
:1032B00005A802F028FF0723ADF818300024ADF868
:1032C0001440ADF81640ADF81A401B4D05A928462C
:1032D00002F0BEFD234622460321284602F0CDFF20
:1032E00002A802F023FFADF8106002A9284603F0FF
:1032F000E2F90121284603F034FA0122114628465A
:1033000002F045FF1D238DF8043001268DF805607D
:103310008DF806608DF8076001A803F01DFB2146BB
:10332000284603F055F93146284602F010FF2046A2
:1033300008B070BD000801400004004008B501213C
:103340000E4803F012FA012804D001210B4803F0C3
:1033500018FA08BD094B1B8813F0100F09D0074B52
:103360001B8813F0100FF0D0054A1368013B13605F
:10337000EBE7034A136801331360E6E700040040FB
:103380002C02002038B50546074B186800241C6045
:103390002860FDF793FC0549FDF798FDFDF732FE27
:1033A0006860204638BD00BF2C020020000040406D
:1033B00008B504F035FF08BD30B587B0012144F2EF
:1033C000050001F0A1FD4FF40073ADF804300325B2
:1033D0008DF8065018238DF80730174C01A92046A8
:1033E00003F01CFF4FF48063ADF804308DF80650F5
:1033F00004238DF807300DEB0301204603F00EFF88
:1034000004F540540121204602F0FEF94FF4E13367
:1034100002930023ADF80C30ADF80E30ADF810304B
:103420000C22ADF81220ADF8143002A9204602F0AB
:1034300065F907B030BD00BF0008014070B5064611
:103440000D4680210A4802F0D1FA0028F9D0002464
:103450000BE0315D064802F04AFA8021044802F090
:10346000C5FA0028F9D00134A4B2AC42F1D370BD42
:103470000038014030B587B004F0B4FE04A8FFF76F
:1034800003FFFFF799FF04F0D7FE04460D4604F052
:10349000D3FE001B61EB05010D4A00238B4208BFE0
:1034A0008242F4D204A8FFF76DFF04F0C5FE044683
:1034B0000D46002301930293ADF80C30059A05499F
:1034C00001A804F0DFFE0A2101A8FFF7B7FFDEE73D
:1034D0009F8601008889000882B000230193009331
:1034E0002C4A136843F4803313602A4B1B6803F49F
:1034F00000330093019B01330193009B1BB9019B97
:10350000B3F5A06FF1D1234B1B6813F4003F06D035
:1035100001230093009B012B04D002B070470023CD
:103520000093F7E71C4B1A6842F010021A601A6801
:1035300022F003021A601A6842F002021A60A3F530
:1035400080535A685A605A685A605A6842F48062D6
:103550005A605A6822F47C125A605A6842F4E8129F
:103560005A601A6842F080721A600A4B1B6813F0A6
:10357000007FFAD0074B5A6822F003025A605A685B
:1035800042F002025A60034B5B6803F00C03082B05
:10359000F9D1C2E7001002400020024008B5FFF751
:1035A0009BFF08BD08B5104B1A6842F001021A6073
:1035B00059680E4A0A405A601A6822F0847222F44E
:1035C00080321A601A6822F480221A605A6822F443
:1035D000FE025A604FF41F029A60FFF7DFFF4FF0C0
:1035E0000062034B9A6008BD001002400000FFF823
:1035F00000ED00E01F4B5B6803F00C03042B15D0BB
:10360000082B17D01BB11C4A1C4B1A6002E01A4A47
:103610001A4B1A60174B5B68C3F30313184AD35C49
:10362000DAB216490B68D3400B607047124A134B4D
:103630001A60EFE70F4A53685268C3F383430233BB
:1036400012F4803F0AD00B4A526812F4003F0BD0AC
:103650000C4A02FB03F3094A1360DBE7094A02FB49
:1036600003F3064A1360D5E7034A02FB03F3034A58
:103670001360CFE70010024000127A00E40100203E
:10368000D401002000093D00036823F001031B045E
:103690001B0C03600023036043608360C360364BF0
:1036A000984221D0354B984224D0354B984227D0B0
:1036B000344B98422AD0344B98422DD0334B984209
:1036C00030D0334B984233D0324B984236D0324BC5
:1036D000984239D0314B98423CD0314B98423FD040
:1036E000304B984242D070472F4A536843F00F0343
:1036F000536070472C4A536843F0F003536070479F
:10370000294A536843F4706353607047264A5368EC
:1037100043F4704353607047234A536843F4702363
:1037200053607047204A536843F4700353607047F6
:103730001D4A536843F07063536070471B4A5368D7
:1037400043F00F0353607047184A536843F0F00387
:1037500053607047154A536843F470635360704771
:10376000124A536843F47043536070470F4A5368DA
:1037700043F470235360B6E7080002401C00024087
:103780003000024044000240580002406C000240F9
:1037900080000240080402401C0402403004024041
:1037A0004404024058040240000002400004024069
:1037B00010B4026822F4FF4222F070028B680C6A97
:1037C00023430C6923434C6923438C692343CC690D
:1037D00023434C6A23438C6A234313430360CB681F
:1037E00043600B6883604B68C36010BC7047002364
:1037F000036043608360C360036143618361C361AD
:10380000036243628362704731B9036823F00103A6
:103810001B041B0C03607047036843F00103036043
:10382000704722B9036823EA010101607047036809
:1038300019430160704741607047406880B270472B
:1038400010F0805F05D0054B1B68034204D10020B7
:103850007047034B1B68F8E70120704700040240E3
:103860000000024010F0805F02D1034B58607047A7
:10387000024B5860704700BF000002400004024045
:1038800010F0805F05D0054B1B68034204D1002077
:103890007047034B1B68F8E70120704700040240A3
:1038A0000000024010F0805F02D1034B5860704767
:1038B000024B5860704700BF000002400004024005
:1038C000014B1868000C7047002004E0024B186898
:1038D000C0F30B00704700BF002004E029B9054A7F
:1038E000536823EA000050607047024A5368184347
:1038F00050607047002004E008B5012001F03CFB57
:10390000002001F039FB08BD014B1860704700BF73
:1039100004860D42014B1860704700BF00860D42BF
:10392000014B1860704700BF88860D42034A938D93
:103930009BB223F46073184390857047006C00407D
:10394000034A938D9BB223F07F0318439085704701
:10395000006C004082B000230193044B0193019B53
:1039600018440190019B196002B07047006C004040
:1039700082B000230193054B0193019B18440190F1
:10398000019B188880B202B0704700BF006C0040F5
:10399000014B1868C0B27047A0860D42034A938E4F
:1039A0009BB243F001039386704700BF006C004058
:1039B000014B1868C0B27047A4860D42034A938E2B
:1039C0009BB243F002039386704700BF006C004037
:1039D00008B501214FF0005001F0C0FA00214FF06E
:1039E000005001F0BBFA08BD30B40A4C226840F622
:1039F000FE73834022EA03020B684D682B438D68F7
:103A00002B43C9680B4303FA00F01043206030BC1D
:103A1000704700BF00740040002303604360836070
:103A2000C360704741B908490B68012202FA00F0EF
:103A300023EA00000860704703490B68012202FA7C
:103A400000F01843086070470074004049B9094904
:103A50000B684FF4805202FA00F023EA000008607D
:103A6000704704490B684FF4805202FA00F0184383
:103A7000086070470074004049B909494B68000963
:103A8000012202FA00F023EA00004860704704496E
:103A90004B680009012202FA00F0184348607047A1
:103AA0000074004028B9064A536823F003035360AA
:103AB0007047034A536843F003035360704700BFE5
:103AC0000074004032B9064A1368814023EA0101BC
:103AD00011607047024A13688140194311607047B2
:103AE0000074004082B000230193054B0193019BB9
:103AF000184408300190019B196002B0704700BF64
:103B00000074004082B000230193054B0193019B98
:103B1000184414300190019B196002B0704700BF37
:103B200000740040082804D042EA0142024BC2500F
:103B3000704742EA0122F9E72074004082B0002376
:103B40000193064B0193019B03EB90002C300190F5
:103B5000019B186880B202B0704700BF007400403B
:103B6000084201D1002070470120704708B50C4B76
:103B700098420AD001214FF0806001F0EFF9002156
:103B80004FF0806001F0EAF908BD01214FF00070AC
:103B900001F0E4F900214FF0007001F0DFF908BDF9
:103BA00000640040036823F002030360036843F0ED
:103BB00001030360002300E00133426812F0010FAB
:103BC00003D14FF6FF729342F6D1436813F0010F11
:103BD0006DD08B79012B3BD0036823F08003036009
:103BE000CB79012B39D0036823F0400303600B7AB3
:103BF000012B37D0036823F0200303604B7A012B9D
:103C000035D0036823F0100303608B7A012B33D087
:103C1000036823F008030360CB7A012B31D00368DB
:103C200023F0040303608A78CB781B0643EA82738F
:103C30000A7943EA02434A7943EA02530A88013A7D
:103C40001343C361036823F00103036000231EE0F4
:103C5000036843F080030360C2E7036843F0400356
:103C60000360C4E7036843F020030360C6E703680A
:103C700043F010030360C8E7036843F008030360E0
:103C8000CAE7036843F004030360CCE701334268EA
:103C900012F0010F03D04FF6FF729342F6D1436842
:103CA00013F0010F01D10120704700207047002060
:103CB0007047000070B4837A012202FA03F33B4A92
:103CC000D2F8001241F00101C2F80012D2F81C42F1
:103CD000D9430C40C2F81C42027BB2B9334AD2F835
:103CE0000C420C40C2F80C42847AC688458845EAEA
:103CF0000645483442F83450857A8688048844EA78
:103D00000644483502EBC5025460027B012A1FD0ED
:103D1000C27A002A34D1254CD4F804220A40C4F8CF
:103D2000042202892AB9214AD2F814422140C2F859
:103D300014120289012A2AD0427B012A2ED01B4A62
:103D4000D2F8003223F00103C2F8003270BC704791
:103D5000164AD2F80C421C43C2F80C42847A0688F8
:103D6000458845EA0645483442F83450857A8688C5
:103D7000C48844EA0644483502EBC5025460C7E7EC
:103D80000A4CD4F804221A43C4F80422C9E70749AC
:103D9000D1F814221A43C1F81422CDE7034AD2F80D
:103DA0001C120B43C2F81C32C9E700BF006400407C
:103DB00000238371C371037243728372C372837071
:103DC000C3700323037102234371012303807047EF
:103DD0000D4BD3F8002242F00102C3F80022D3F8C1
:103DE000002222F47C5222F00E02C3F80022D3F803
:103DF000002242EA0020C3F80002D3F8002222F099
:103E00000102C3F8002270470064004021B9036832
:103E100023F4803303607047036843F48033036006
:103E20007047B1B9036823F080030360D0F8843190
:103E300023F48073C0F88431D0F8943123F4807374
:103E4000C0F89431D0F8A43123F48073C0F8A431C1
:103E50007047036843F080030360D0F8843143F473
:103E60008073C0F88431D0F8943143F48073C0F883
:103E70009431D0F8A43143F48073C0F8A431704772
:103E80000346826812F0806F09D1826812F0006FD9
:103E90004ED1826812F0805F4CD0022000E00020FA
:103EA000042844D0F0B4054600F1180212019C58D1
:103EB00004F001049C500A7A002A3DD100F1180256
:103EC00012019C580F684E7A46EA475634439C507C
:103ED0008A7A02F00F028A7205F1180424011A1975
:103EE000566826F00F06566056688F7A3E43566035
:103EF0008E7B4A7B120442EA06620E7B42EA06226D
:103F0000CE7A324303EB0515C5F888218E7C4A7CB6
:103F1000120442EA06620E7C42EA0622C97B0A4388
:103F2000C5F88C211A5942F001021A51F0BC7047B1
:103F30000120B5E70420B3E700F1180424011E595D
:103F40004F6842EAC7024F7A3A4332431A51BFE7F9
:103F5000012919D019B102291AD0002308E0836879
:103F600023F07B4323F47F0323F47F4323F0FC03FC
:103F7000104A934217D013D90F4A934215D00F4AD3
:103F8000934214D10120704782680B4B1340EFE736
:103F9000836823F06F4323F47C031B0C1B04E7E7C7
:103FA0002BB9022070470120704701207047002084
:103FB000704700BF03000004000300080000031066
:103FC000012908D011B102290AD07047836843F053
:103FD000800383607047836843F4004383607047C5
:103FE000836843F400038360704710B401F11B033E
:103FF0001B01C35803F004031372002B3BD101F1E2
:104000001B031B01C3585B0D136001F11B031B0154
:10401000C418C35803F002035372636803F00F031C
:10402000937263681B0AD37400EB0113D3F8B84191
:10403000D472D3F8B841240A1473D3F8B841240CCD
:104040005473D3F8B841240E9473D3F8BC41D4739D
:10405000D3F8BC41240A1474D3F8BC41240C547422
:10406000D3F8BC311B0E937461B1036943F0200394
:10407000036110BC704701F11B031B01C358DB082F
:104080005360C2E7C36843F02003C360F1E721B186
:10409000036943F0200303617047C36843F02003C2
:1040A000C360704719B1012905D000207047C0686E
:1040B00000F003007047006900F003007047B9B9D1
:1040C000036823F0030343F0010303604FF6FF721C
:1040D00000E0013A436803F00303012B01D0002AFA
:1040E000F7D1436803F00303012B32D0002070475F
:1040F000012903D0022915D000207047036823F05E
:10410000030303604FF6FF7300E0013B426812F0C7
:10411000030F01D0002BF8D1436813F0030F1AD01E
:1041200000207047036823F0030343F00203036099
:104130004FF6FF72436803F00303022B02D00AB16B
:10414000013AF7E7436803F00303022B05D0002090
:1041500070470120704701207047012070470368B5
:1041600023F0030343F002030360436803F00303F7
:10417000022B01D00020704701207047036823F014
:10418000020303604FF6FF7300E0013B426812F048
:10419000020F01D0002BF8D1436813F0020F01D1B8
:1041A0000120704700207047806900F07000704760
:1041B0008069000E70478069C0F30740704722B9DC
:1041C000436923EA01014161704743691943416131
:1041D000704711F4700F06D083691940C1F31301C1
:1041E00041B30120704711F0807F06D04368194029
:1041F000C1F3130101B30120704711F0006F06D025
:1042000083681940C1F31301C1B10120704711F057
:10421000007F06D0C3681940C1F3130181B10120AA
:10422000704703691940C1F3130109B900207047B1
:104230000120704700207047002070470020704721
:10424000002070470C4B99420CD0C1F3130311F0BE
:10425000007F0AD111F0806F09D111F0006F08D1F1
:1042600043607047002383617047C36070470361F8
:1042700070478360704700BF7000F03008B5436935
:104280000B426DD040294DD011D9B1F5006F62D0ED
:1042900021D8B1F5007F54D0B1F5806F56D0B1F57B
:1042A000807F0DD180690121FFF75AFC08BD0429E8
:1042B00024D007D910292BD020292ED0082922D08C
:1042C000002008BD012914D00229F9D1C0680321BA
:1042D000FFF746FC08BDB1F5803F28D0B1F5003F9F
:1042E0002AD0B1F5004FEBD140680421FFF738FC2C
:1042F00008BD80681B49FFF733FC08BDC068082172
:10430000FFF72EFC08BDC0681021FFF729FC08BD8F
:1043100000690321FFF724FC08BD00690821FFF7AD
:104320001FFC08BD00691021FFF71AFC08BD40689A
:104330000821FFF715FC08BD40681021FFF710FCAD
:1043400008BD80690221FFF70BFC08BD80690421CC
:10435000FFF706FC08BD80697021FFF701FC08BD6E
:10436000002008BD01010100B1F5807F3ED011D9C8
:10437000B1F5006F40D020D9B1F5803F30D0B1F514
:10438000003F30D0B1F5004F03D1002383610423F7
:104390004360704708291DD007D8012917D0042988
:1043A00002D10823C36070477047202915D04029E7
:1043B00002D11023036170477047B1F5007F18D018
:1043C000B1F5806F02D104234360704770470D4BF5
:1043D000836070471023C3607047082303617047F0
:1043E00008234360704710234360704704234360F1
:1043F00070470423436070470023836104234360B4
:10440000704700BF0101010031B9064B1A88C04353
:1044100080B2104018807047024A13889BB218433C
:104420001080704700280040034A93889BB243F0F5
:1044300010039380704700BF00280040034A938810
:104440009BB223F010039BB293807047002800407A
:10445000034A938B9BB2108B43EA0040704700BF26
:104460000028004010B50446FFF7DEFF220C034B86
:104470001A83A4B29C83FFF7E1FF10BD002800401F
:1044800010B50446FFF7D0FFC4F30342034B1A8173
:10449000A4B29C81FFF7D2FF10BD00BF00280040EE
:1044A00010B50446FFF7C0FF220C034B1A84A4B2D8
:1044B0009C84FFF7C3FF10BD00280040044A138A04
:1044C0001B0403F47023908A80B21843704700BF26
:1044D00000280040024B9B8813F0200FFAD0704751
:1044E00000280040064A93889BB223F008039BB241
:1044F0009380034B9B8813F0080FFAD0704700BFDE
:1045000000280040034B9B88184201D100207047CF
:104510000120704700280040034B9A88C04380B2B6
:1045200010409880704700BF00280040064A9188DC
:10453000C3B20B401288104202D01BB90020704752
:10454000002070470120704700280040034B9A88E4
:10455000C04380B210409880704700BF00280040E0
:1045600008B501214FF0805000F0F8FC00214FF019
:10457000805000F0F3FC08BD014B1860704700BF8D
:1045800020000E42014B1860704700BF10000E4221
:10459000034A136823F0E00318431060704700BF1C
:1045A00000700040014B1860704700BFA0000E4231
:1045B0000A4A136823F0030318431060084A13697A
:1045C00043F004031361012906D020BF044A136994
:1045D00023F004031361704730BFF7E70070004019
:1045E00000ED00E0074B1A6842F004021A601A68F6
:1045F00042F002021A60044A136943F00403136193
:1046000030BF70470070004000ED00E0034B5B6876
:10461000034201D100207047012070470070004024
:10462000024A136843EA800010607047007000403F
:1046300008B50C4B98420AD001214FF4800000F0DD
:104640008DFC00214FF4800000F088FC08BD0121A2
:104650004FF4001000F082FC00214FF4001000F035
:104660007DFC08BD00540040F0B587B004460D46FF
:104670008688B6B226F03F06B6B201A800F0D8FB95
:1046800003982D4AA2FB0032920C97B23E43A680BB
:10469000218889B221F0010189B221802B68274944
:1046A0008B421FD85B00B0FBF3F39BB2032B00D807
:1046B000042301372784A38323889BB243F001039B
:1046C000238023889BB223F4816323F00203AA880A
:1046D00069890A4313432380AB892A8913432381C1
:1046E00007B0F0BDEE884BF6FF718E421DD003EB94
:1046F000830303EB8303B0FBF3F39BB243F48043E8
:10470000C3F30B0109B943F0010343F400434FF431
:10471000967102FB01F20A4981FB0201D217C2EB3A
:10472000A112013292B22284C5E703EB4303B0FB2E
:10473000F3F39BB2E4E700BF83DE1B43A0860100D6
:10474000D34D621041F288330360002383804BF61F
:10475000FF72C280038143814FF48043838170479D
:1047600031B903889BB223F001039BB203807047E9
:1047700003889BB243F001030380704731B98388FB
:104780009BB223F400639BB28380704783889BB203
:1047900043F400638380704731B983889BB223F46C
:1047A00080539BB28380704783889BB243F48053CD
:1047B0008380704731B903889BB223F480739BB226
:1047C0000380704703889BB243F480730380704773
:1047D00031B903889BB223F400739BB20380704706
:1047E00003889BB243F400730380704731B9038898
:1047F0009BB223F480639BB20380704703889BB213
:1048000043F480630380704783899BB223F0FE03E7
:1048100001F0FE010B438381704731B983899BB25C
:1048200023F001039BB28381704783899BB243F0DD
:1048300001038381704731B903889BB223F04003A1
:104840009BB20380704703889BB243F04003038010
:1048500070472AB98388C94389B21940818070475B
:1048600083889BB219438180704701827047008A18
:10487000C0B2704722B901F0FE0189B201827047CF
:1048800041F00101F9E782B0002301930190019BFF
:1048900019440191019B188880B202B0704721B978
:1048A0000388C3F30E030380704703886FEA434312
:1048B0006FEA53439BB203807047B1F5006F06D097
:1048C00003889BB223F400639BB203807047038884
:1048D0009BB243F4006303807047B1F5005F06D0DC
:1048E00003889BB223F400539BB203807047038874
:1048F0009BB243F400530380704731B903889BB2E5
:1049000023F480539BB20380704703889BB243F427
:10491000805303807047B1F5006F06D003889BB2C7
:1049200023F400639BB20380704703889BB243F477
:1049300000630380704731B903889BB223F02003E2
:104940009BB20380704703889BB243F0200303802F
:104950007047008BC0F30720704731B903889BB2C2
:1049600023F010039BB20380704703889BB243F08F
:1049700010030380704731B103889BB223F080039A
:104980009BB20380704703889BB243F0800303808F
:104990007047B1F5804F06D0838B9BB223F48043E0
:1049A0009BB283837047838B9BB243F480438383A2
:1049B0007047838A9BB2028B43EA024323F07F4312
:1049C00031EA030301D00020704701207047838A39
:1049D0009BB2008B43EA004020F07F40704782B0DA
:1049E00000230193009300900B0F019321F07F416E
:1049F000019B4BB1009B14330093009B1B68194231
:104A000007D1002002B07047090C009B18330093B7
:104A1000F3E70120F6E721F07F41C94389B28182A3
:104A20007047838803EA114303F4E063828A92B2F9
:104A3000114202D01BB900207047002070470120AE
:104A4000704721F07F41C94389B2818270470000DD
:104A5000064B00221A605A609A60DA605A629A62C3
:104A6000DA6203499963DA63704700BF008001404E
:104A7000FF07C00010B40A494A6822F4FD4222F040
:104A80007F02037D8468234344682343C46823432F
:104A9000046823430069034313434B6010BC704711
:104AA0000080014000230375036043608360C3609E
:104AB00003617047014B1860704700BFA00030428F
:104AC000044B1A6822F003021A601A681043186037
:104AD000704700BF00800140024B186800F00300DF
:104AE000704700BF0080014029B9054AD36B23EA13
:104AF0000000D0637047024AD36B1843D0637047FD
:104B000000800140014B1860704700BF8C053042A7
:104B100010B4036808498B60CB6823F4FF6323F06B
:104B20000703426884682243C46822430069024341
:104B30001343CB6010BC704700800140002303602A
:104B400043608360C360036170470000014B1869D4
:104B5000C0B270470080014082B000230193034B34
:104B600003440193019B186802B070471480014010
:104B700010B4036808494B6243688B62CA6A22F02A
:104B8000F7028368C46823430469234340690343ED
:104B90001343CB6210BC7047008001404FF0FF33DD
:104BA0000360002343608360C36003614361704717
:104BB000014B186B704700BF00800140014BD3F8D8
:104BC0008000704700800140014BC3F880007047AF
:104BD00000800140014B986C704700BF008001408D
:104BE000014B1860704700BFA0053042014B1860B0
:104BF000704700BFA4053042014B1860704700BFEA
:104C0000A8053042014B1860704700BFAC05304228
:104C1000014B1860704700BFAC013042014B186077
:104C2000704700BFB001304280F0010000F0010089
:104C3000014B1860704700BFB4013042014B18604F
:104C4000704700BFB8013042034B5B6B034201D198
:104C5000002070470120704700800140014B98639D
:104C6000704700BF00800140034B5B6B034201D1E2
:104C7000002070470120704700800140014B98637D
:104C8000704700BF008001400D4B1A6842F00102DE
:104C90001A6059680B4A0A405A601A6822F08472F6
:104CA00022F480321A601A6822F480221A605A684C
:104CB00022F4FE025A604FF41F029A60704700BF50
:104CC000001002400000FFF80D4B1A6822F48032F9
:104CD0001A601A6822F480221A60B0F5803F03D06F
:104CE000B0F5802F06D07047054A136843F480332F
:104CF00013607047024A136843F4A023136070479F
:104D000000100240034A136823F0F80343EAC0008E
:104D10001060704700100240014B1860704700BFE0
:104D200000004242034A536823F47C1301430B43BF
:104D30005360704700100240014B1860704700BF7D
:104D400060004242034A536823F003031843506053
:104D5000704700BF00100240024B586800F00C0082
:104D6000704700BF00100240034A536823F0F0036D
:104D700018435060704700BF00100240034A536858
:104D800023F4E06318435060704700BF00100240F6
:104D9000034A536823F4605343EAC00050607047ED
:104DA0000010024029B9054A137823EA0000107068
:104DB0007047024A13781843107070470910024078
:104DC000014B1860704700BFD8004242034A536845
:104DD00023F4404318435060704700BF0010024066
:104DE000084B00221A701A70012802D0042804D03F
:104DF00070470122034B1A7070470522014B1A704D
:104E0000704700BF20100240014B1860704700BF80
:104E100080044242024A136A18431062704700BF7E
:104E200000100240014B1860704700BF3C04424232
:104E300010B4294B5B6803F00C03042B2BD0082B18
:104E40002CD013B1254B036001E0244B03602249B1
:104E50004B68C3F30313224CE35CDAB20368D3401C
:104E600043604A68C2F30222A25CD2B223FA02F281
:104E700082604A68C2F3C222A25CD2B2D340C3604D
:104E80004A68C2F3813217498A5CD2B2B3FBF2F3AB
:104E9000036110BC7047114B0360D8E70E4A53689A
:104EA0005268C3F38343023312F4803F09D00A4AA5
:104EB000526812F4003F09D00B4A02FB03F303606F
:104EC000C5E7094A02FB03F30360C0E7034A02FB9C
:104ED00003F30360BBE700BF0010024000127A003A
:104EE000EC010020E801002000093D0029B9054A35
:104EF000536923EA000050617047024A536918431E
:104F0000506170470010024029B9054A936923EAAD
:104F1000000090617047024A93691843906170479E
:104F20000010024029B9054AD36923EA0000D06184
:104F30007047024AD3691843D0617047001002409D
:104F400029B9054AD36823EA0000D0607047024AB5
:104F5000D3681843D06070470010024029B9054A51
:104F6000136923EA000010617047024A136918436D
:104F70001061704700100240014B1860704700BF7D
:104F800040044242014B1860704700BF4C0042424F
:104F9000014B1870704700BF071002404309012BF6
:104FA0000CD0022B0DD0094B5B6A00F01F0023FAD6
:104FB00000F010F0010F07D100207047034B1B6871
:104FC000F3E7024B1B6AF0E7012070470010024034
:104FD00000B583B0002301933120FFF7DFFF019B71
:104FE00001330193019BB3F5A06F01D00028F3D0EA
:104FF0003120FFF7D3FF18B9002003B05DF804FBA0
:105000000120FAE7024A536A43F080735362704703
:1050100000100240034B9B68184201D100207047EA
:105020000120704700100240014B1870704700BF0C
:105030000A100240034A136803F038031843106053
:10504000704700BF00200240044B1A6822F008029B
:105050001A601A6810431860704700BF00200240B1
:10506000044B1A6822F010021A601A681043186084
:10507000704700BF00200240034B044A5A6002F10F
:1050800088325A60704700BF002002402301674504
:10509000034B044A5A6002F188325A60704700BFDD
:1050A0000020024023016745024A136943F0800350
:1050B0001361704700200240024A136943F08003E5
:1050C0001361704700200240014BD8698008704787
:1050D00000200240014B186A704700BF00200240C8
:1050E000044BDB6913F0020F01D10020704701204F
:1050F000704700BF00200240044B1B6813F0200FD4
:1051000001D1002070470120704700BF00200240FD
:1051100029B9054A136923EA000010617047024A61
:10512000136918431061704700200240012805D020
:10513000074BDB68184207D100207047044BDB693E
:1051400013F0010F02D07047012070470020704714
:1051500000200240014BD860704700BF0020024091
:105160000B4BDB6813F0010F0DD1094BDB6813F01B
:10517000040F01D002207047054BDB6813F0100FBD
:1051800003D003207047012070470420704700BF00
:10519000002002400B4BDB6813F0010F0DD1094BCF
:1051A000DB6813F0040F01D002207047054BDB6869
:1051B00013F0100F03D00320704701207047042024
:1051C000704700BF0020024010B50446FFF7E2FF21
:1051D00002E0FFF7DFFF013C012801D1002CF8D1EC
:1051E00004B9052010BD000038B505464FF4302045
:1051F000FFF7EAFF042800D038BD0A4C236943F0CA
:10520000020323616561236943F0400323614FF486
:105210003020FFF7D9FF236923F00203DB04DB0C06
:105220002361E9E70020024010B54FF43020FFF77A
:10523000CBFF042800D010BD094C236943F00403C0
:105240002361236943F0400323614FF43020FFF7CB
:10525000BBFF236923F00403DB04DB0C2361EAE7D3
:105260000020024010B5FFF73BFF38B9A5244FF4EA
:105270003020FFF7A9FF042802D010BD0024F6E774
:105280001C4B1D4A9A6002F188329A601A6942F0FA
:1052900020021A611A6942F040021A614FF430206C
:1052A000FFF792FF042809D00528E6D0114A1369B8
:1052B00023F01003DB04DB0C1361DEE70D4B1A69EE
:1052C00022F02002D204D20C1A611A6942F01002B4
:1052D0001A610A4B1C804FF40050FFF775FF052838
:1052E000CBD0044A136923F01003DB04DB0C1361F9
:1052F00010BD00BF002002402301674500F8FF1FDA
:1053000030B583B005460C46002301934FF400509E
:10531000FFF75AFF042801D003B030BD124A1369C9
:1053200043F001031361A3B22B804FF40050FFF749
:105330004BFF042807D00C4A136923F00103DB0458
:10534000DB0C1361E8E702350195019B240C1C80FE
:105350004FF40050FFF738FF034A136923F00103AD
:10536000DB04DB0C1361D7E70020024070B5044674
:105370000D464FF40050FFF727FF042800D070BD02
:10538000084E336943F00103336125804FF4005028
:10539000FFF71AFF336923F00103DB04DB0C3361F1
:1053A000EDE700BF0020024038B505460C464FF43B
:1053B0000050FFF709FF042800D038BD0C4B0D4A00
:1053C0009A6002F188329A601A6942F010021A61FA
:1053D000A4B22C804FF40050FFF7F6FE0528ECD065
:1053E000034A136923F01003DB04DB0C1361E4E7C9
:1053F0000020024023016745F8B5C043C5B2C0F3A1
:105400000727C0F30746040E4FF40050FFF7DCFEF9
:10541000042800D0F8BD1E4B1E4A9A6002F1883263
:105420009A601A6942F010021A61FF2D05D01A4BDA
:105430001D814FF40050FFF7C7FE04280DD004284B
:1054400014D004281BD00528E4D0114A136923F096
:105450001003DB04DB0C1361DCE7FF2FEFD00E4BF6
:105460005F814FF40050FFF7AFFEE8E7FF2EE8D072
:10547000094B9E814FF40050FFF7A6FEE1E7FF2C99
:10548000E1D0054BDC814FF40050FFF79DFEDAE7D9
:10549000002002402301674500F8FF1F10B50446B5
:1054A0004FF43020FFF790FE042800D010BD1F4BB2
:1054B0001F4A9A6002F188329A601A6942F020020B
:1054C0001A611A6942F040021A614FF43020FFF766
:1054D0007BFE042809D00528E8D0144A136923F07C
:1054E0002003DB04DB0C1361E0E7104B1A6922F0A8
:1054F0002002D204D20C1A611A6942F010021A6119
:1055000084B100220B4B1A804FF43020FFF75CFE71
:105510000528CBD0054A136923F01003DB04DB0C0C
:10552000136110BDA522034B1A80EDE70020024055
:105530002301674500F8FF1F70B504460E46154667
:10554000124B1349996001F1883199604FF4005072
:10555000FFF73AFE042800D070BD0C4A136943F0EF
:105560001003136135432C4344F0F804094B5C806D
:105570004FF40050FFF728FE0528EDD0034A1369C9
:1055800023F01003DB04DB0C1361E5E7002002408D
:105590002301674500F8FF1F10B50446FFF7FAFD29
:1055A00002E0FFF7F7FD013C012801D1002CF8D102
:1055B00004B9052010BD000010B54FF43020FFF7EE
:1055C000EBFF042800D010BD094C236943F004030D
:1055D0002361236943F0400323614FF43020FFF738
:1055E000DBFF236923F00403DB04DB0C2361EAE720
:1055F000002002400122014B9A60704700300240B7
:10560000014B1860186870470030024000238B423D
:105610000BD210B450F82340054A146001338B427A
:10562000F8D3034B186810BC7047014B18687047DB
:1056300000300240014B1868704700BF0030024044
:10564000014B1871704700BF00300240014B1879C0
:10565000704700BF0030024008B5234B98420CD081
:10566000224B984214D0224B98421CD0214B984296
:1056700024D0214B98422CD008BD01214FF480400A
:10568000FFF75EFC00214FF48040FFF759FC08BD96
:1056900001214FF40030FFF761FC00214FF400308E
:1056A000FFF75CFC08BD01214FF48020FFF756FC9A
:1056B00000214FF48020FFF751FC08BD01214FF479
:1056C0000020FFF74BFC00214FF40020FFF746FCC1
:1056D00008BD01214FF48010FFF740FC00214FF47A
:1056E0008010FFF73BFCC7E7003801400044004052
:1056F00000480040004C00400050004030B587B0EA
:1057000004460D46038A9BB2CA8823F440531343D0
:10571000038283899BB2898828896A8901430A4365
:1057200023F4B05323F00C031343A381A38A9BB249
:10573000AA8923F440731343A38201A8FFF778FBDF
:105740001E4B9C4224D0039BA28912F4004F21D10E
:1057500003EB830303EB830329688900B3FBF1F1B7
:10576000174BA3FB012358090501642300FB131306
:10577000A28912F4004F16D11B013233104AA2FB4A
:105780000323C3F343132B439BB2238107B030BDE4
:10579000049BD9E703EB830303EB830329684900E8
:1057A000B3FBF1F1DCE7D9003231054AA2FB01314C
:1057B000C1F3421245EA0203E6E700BF00380140A8
:1057C0001F85EB514FF41653036000238380C38081
:1057D00003810C2242818381704770B4028A92B2A5
:1057E0000D884E888C88CB8845EA060121430B43FF
:1057F00022F470621343038270BC7047002303805D
:1058000043808380C380704731B983899BB223F47E
:1058100000539BB28381704783899BB243F400534A
:105820008381704710B4C1F3421401F01F010123BA
:1058300003FA01F19C4209D0022C09D014304AB974
:10584000036823EA0101016010BC70470C30F6E7E1
:105850001030F4E7036819430160F5E72AB9838A39
:10586000C94389B2194081827047838A9BB2194328
:1058700081827047038A9BB223F00F039BB203829D
:10588000038A9BB219430182704783899BB223F438
:1058900000639BB2838183899BB2194381817047E6
:1058A00031B983899BB223F002039BB28381704795
:1058B00083899BB243F0020383817047038A9BB2C2
:1058C00023F020039BB20382038A9BB21943018217
:1058D000704731B9038A9BB223F480439BB20382A1
:1058E0007047038A9BB243F4804303827047C1F33D
:1058F0000801818070478088C0F308007047838961
:105900009BB243F0010383817047038BDBB20383B7
:10591000038B9BB243EA012101837047038B03F49D
:105920007F430383038B9BB219430183704731B9D3
:10593000838A9BB223F020039BB283827047838AC1
:105940009BB243F020038382704731B9838A9BB2B4
:1059500023F010039BB283827047838A9BB243F08B
:1059600010038382704731B9838A9BB223F0080306
:105970009BB283827047838A9BB243F00803838281
:10598000704721B98389C3F30E03838170478389EC
:105990006FEA43436FEA53439BB28381704731B947
:1059A000838A9BB223F400639BB283827047838A0D
:1059B0009BB243F4006383827047838A9BB223F0D7
:1059C00004039BB28382838A9BB21943818270470E
:1059D00031B9838A9BB223F002039BB28382704762
:1059E000838A9BB243F00203838270470388194283
:1059F00001D10020704701207047C94389B201805E
:105A0000704710B4C1F3421201F01F040123A340F8
:105A1000012A0FD0022A11D0828A92B21340090AB9
:105A2000012202FA01F1028892B2114053B161B928
:105A3000002008E0828992B21340F0E7028A92B215
:105A40001340ECE7002010BC70470120FBE7090A77
:105A500001238B409BB2DB439BB203807047000065
:105A600030B4048CA4B224F00104A4B20484048BE6
:105A7000A4B2058CADB224F0F3041B019BB21A430F
:105A80001443124A90421AD0114B984217D0B0F1E9
:105A9000804F14D0A3F59833984210D003F580635B
:105AA00098420CD003F58063984208D025F00A0391
:105AB000194341F001010483018430BC704725F093
:105AC0000203194341F00101F5E700BF002C01403A
:105AD0000034014070B4058CADB225F01005ADB2B4
